{
  "_format": "hh-sol-artifact-1",
  "contractName": "Contribution",
  "sourceName": "contracts/Contribution.sol",
  "abi": [
    {
      "inputs": [],
      "stateMutability": "payable",
      "type": "constructor"
    },
    {
      "anonymous": false,
      "inputs": [
        {
          "indexed": false,
          "internalType": "address",
          "name": "requestor",
          "type": "address"
        },
        {
          "indexed": false,
          "internalType": "uint256",
          "name": "cost",
          "type": "uint256"
        },
        {
          "indexed": false,
          "internalType": "uint256",
          "name": "tokens",
          "type": "uint256"
        }
      ],
      "name": "Auction",
      "type": "event"
    },
    {
      "inputs": [
        {
          "internalType": "address",
          "name": "recipient",
          "type": "address"
        },
        {
          "internalType": "uint256",
          "name": "amount",
          "type": "uint256"
        }
      ],
      "name": "exchange",
      "outputs": [],
      "stateMutability": "payable",
      "type": "function"
    },
    {
      "inputs": [
        {
          "internalType": "address",
          "name": "wallet",
          "type": "address"
        }
      ],
      "name": "getBalance",
      "outputs": [
        {
          "internalType": "uint256",
          "name": "ethSpent",
          "type": "uint256"
        }
      ],
      "stateMutability": "view",
      "type": "function"
    }
  ],
  "bytecode": "0x60806040526104ff806100136000396000f3fe6080604052600436106100295760003560e01c8063045d03891461002e578063f8b2cb4f1461004a575b600080fd5b61004860048036038101906100439190610288565b610087565b005b34801561005657600080fd5b50610071600480360381019061006c919061025f565b6101ec565b60405161007e9190610385565b60405180910390f35b600034116100ca576040517f08c379a00000000000000000000000000000000000000000000000000000000081526004016100c190610365565b60405180910390fd5b60008054906101000a900473ffffffffffffffffffffffffffffffffffffffff1673ffffffffffffffffffffffffffffffffffffffff1663069d78dc83836040518363ffffffff1660e01b8152600401610125929190610305565b600060405180830381600087803b15801561013f57600080fd5b505af1158015610153573d6000803e3d6000fd5b5050505034600160003373ffffffffffffffffffffffffffffffffffffffff1673ffffffffffffffffffffffffffffffffffffffff16815260200190815260200160002060008282546101a691906103b1565b925050819055507f647cf2c0f315a1aa78a86d97a39c97751309793650134fcc719eba9a10fada2e3334836040516101e09392919061032e565b60405180910390a15050565b6000600160008373ffffffffffffffffffffffffffffffffffffffff1673ffffffffffffffffffffffffffffffffffffffff168152602001908152602001600020549050919050565b6000813590506102448161049b565b92915050565b600081359050610259816104b2565b92915050565b60006020828403121561027157600080fd5b600061027f84828501610235565b91505092915050565b6000806040838503121561029b57600080fd5b60006102a985828601610235565b92505060206102ba8582860161024a565b9150509250929050565b6102cd81610407565b82525050565b60006102e0600e836103a0565b91506102eb82610472565b602082019050919050565b6102ff81610439565b82525050565b600060408201905061031a60008301856102c4565b61032760208301846102f6565b9392505050565b600060608201905061034360008301866102c4565b61035060208301856102f6565b61035d60408301846102f6565b949350505050565b6000602082019050818103600083015261037e816102d3565b9050919050565b600060208201905061039a60008301846102f6565b92915050565b600082825260208201905092915050565b60006103bc82610439565b91506103c783610439565b9250827fffffffffffffffffffffffffffffffffffffffffffffffffffffffffffffffff038211156103fc576103fb610443565b5b828201905092915050565b600061041282610419565b9050919050565b600073ffffffffffffffffffffffffffffffffffffffff82169050919050565b6000819050919050565b7f4e487b7100000000000000000000000000000000000000000000000000000000600052601160045260246000fd5b7f4e6f7420656e6f75676820455448000000000000000000000000000000000000600082015250565b6104a481610407565b81146104af57600080fd5b50565b6104bb81610439565b81146104c657600080fd5b5056fea26469706673582212209c6004aeff78de1451e3bfc719ce6202b91098f9a99737d3fc862339e8b7555c64736f6c63430008040033",
  "linkReferences": {},
  "deployedLinkReferences": {}
}