{
  "_format": "hh-sol-artifact-1",
  "contractName": "Contribution",
  "sourceName": "contracts/Contribution.sol",
  "abi": [
    {
      "inputs": [],
      "stateMutability": "payable",
      "type": "constructor"
    },
    {
      "anonymous": false,
      "inputs": [
        {
          "indexed": false,
          "internalType": "address",
          "name": "requestor",
          "type": "address"
        },
        {
          "indexed": false,
          "internalType": "uint256",
          "name": "cost",
          "type": "uint256"
        },
        {
          "indexed": false,
          "internalType": "uint256",
          "name": "tokens",
          "type": "uint256"
        }
      ],
      "name": "Auction",
      "type": "event"
    },
    {
      "inputs": [
        {
          "internalType": "address",
          "name": "",
          "type": "address"
        }
      ],
      "name": "balance",
      "outputs": [
        {
          "internalType": "uint256",
          "name": "",
          "type": "uint256"
        }
      ],
      "stateMutability": "view",
      "type": "function"
    },
    {
      "inputs": [
        {
          "internalType": "address",
          "name": "recipient",
          "type": "address"
        },
        {
          "internalType": "uint256",
          "name": "amount",
          "type": "uint256"
        }
      ],
      "name": "exchange",
      "outputs": [
        {
          "internalType": "bool",
          "name": "success",
          "type": "bool"
        }
      ],
      "stateMutability": "payable",
      "type": "function"
    },
    {
      "inputs": [
        {
          "internalType": "address",
          "name": "wallet",
          "type": "address"
        }
      ],
      "name": "getBalance",
      "outputs": [
        {
          "internalType": "uint256",
          "name": "ethSpent",
          "type": "uint256"
        }
      ],
      "stateMutability": "view",
      "type": "function"
    }
  ],
  "bytecode": "0x60806040526105b0806100136000396000f3fe6080604052600436106100345760003560e01c8063045d038914610039578063e3d670d714610069578063f8b2cb4f146100a6575b600080fd5b610053600480360381019061004e9190610303565b6100e3565b60405161006091906103ef565b60405180910390f35b34801561007557600080fd5b50610090600480360381019061008b91906102da565b61024f565b60405161009d919061042a565b60405180910390f35b3480156100b257600080fd5b506100cd60048036038101906100c891906102da565b610267565b6040516100da919061042a565b60405180910390f35b6000803411610127576040517f08c379a000000000000000000000000000000000000000000000000000000000815260040161011e9061040a565b60405180910390fd5b60008054906101000a900473ffffffffffffffffffffffffffffffffffffffff1673ffffffffffffffffffffffffffffffffffffffff1663069d78dc84846040518363ffffffff1660e01b815260040161018292919061038f565b600060405180830381600087803b15801561019c57600080fd5b505af11580156101b0573d6000803e3d6000fd5b5050505034600160003373ffffffffffffffffffffffffffffffffffffffff1673ffffffffffffffffffffffffffffffffffffffff16815260200190815260200160002060008282546102039190610456565b925050819055507f647cf2c0f315a1aa78a86d97a39c97751309793650134fcc719eba9a10fada2e33348460405161023d939291906103b8565b60405180910390a16001905092915050565b60016020528060005260406000206000915090505481565b6000600160008373ffffffffffffffffffffffffffffffffffffffff1673ffffffffffffffffffffffffffffffffffffffff168152602001908152602001600020549050919050565b6000813590506102bf8161054c565b92915050565b6000813590506102d481610563565b92915050565b6000602082840312156102ec57600080fd5b60006102fa848285016102b0565b91505092915050565b6000806040838503121561031657600080fd5b6000610324858286016102b0565b9250506020610335858286016102c5565b9150509250929050565b610348816104ac565b82525050565b610357816104be565b82525050565b600061036a600e83610445565b915061037582610523565b602082019050919050565b610389816104ea565b82525050565b60006040820190506103a4600083018561033f565b6103b16020830184610380565b9392505050565b60006060820190506103cd600083018661033f565b6103da6020830185610380565b6103e76040830184610380565b949350505050565b6000602082019050610404600083018461034e565b92915050565b600060208201905081810360008301526104238161035d565b9050919050565b600060208201905061043f6000830184610380565b92915050565b600082825260208201905092915050565b6000610461826104ea565b915061046c836104ea565b9250827fffffffffffffffffffffffffffffffffffffffffffffffffffffffffffffffff038211156104a1576104a06104f4565b5b828201905092915050565b60006104b7826104ca565b9050919050565b60008115159050919050565b600073ffffffffffffffffffffffffffffffffffffffff82169050919050565b6000819050919050565b7f4e487b7100000000000000000000000000000000000000000000000000000000600052601160045260246000fd5b7f4e6f7420656e6f75676820455448000000000000000000000000000000000000600082015250565b610555816104ac565b811461056057600080fd5b50565b61056c816104ea565b811461057757600080fd5b5056fea2646970667358221220da08ad527ec37ae95b1b1134a85b96a9d39e8227f471333690c05021277c093064736f6c63430008040033",
  "linkReferences": {},
  "deployedLinkReferences": {}
}