{
  "_format": "hh-sol-artifact-1",
  "contractName": "NEWToken",
  "sourceName": "contracts/Token.sol",
  "abi": [
    {
      "inputs": [],
      "stateMutability": "nonpayable",
      "type": "constructor"
    },
    {
      "anonymous": false,
      "inputs": [
        {
          "indexed": true,
          "internalType": "address",
          "name": "owner",
          "type": "address"
        },
        {
          "indexed": true,
          "internalType": "address",
          "name": "spender",
          "type": "address"
        },
        {
          "indexed": false,
          "internalType": "uint256",
          "name": "value",
          "type": "uint256"
        }
      ],
      "name": "Approval",
      "type": "event"
    },
    {
      "anonymous": false,
      "inputs": [
        {
          "indexed": true,
          "internalType": "address",
          "name": "from",
          "type": "address"
        },
        {
          "indexed": true,
          "internalType": "address",
          "name": "to",
          "type": "address"
        },
        {
          "indexed": false,
          "internalType": "uint256",
          "name": "value",
          "type": "uint256"
        }
      ],
      "name": "Transfer",
      "type": "event"
    },
    {
      "anonymous": false,
      "inputs": [
        {
          "indexed": false,
          "internalType": "address",
          "name": "recipient",
          "type": "address"
        },
        {
          "indexed": false,
          "internalType": "uint256",
          "name": "tokensSent",
          "type": "uint256"
        },
        {
          "indexed": false,
          "internalType": "uint256",
          "name": "currentTime",
          "type": "uint256"
        }
      ],
      "name": "Transfers",
      "type": "event"
    },
    {
      "inputs": [],
      "name": "_endTime",
      "outputs": [
        {
          "internalType": "uint256",
          "name": "",
          "type": "uint256"
        }
      ],
      "stateMutability": "view",
      "type": "function"
    },
    {
      "inputs": [],
      "name": "_startTime",
      "outputs": [
        {
          "internalType": "uint256",
          "name": "",
          "type": "uint256"
        }
      ],
      "stateMutability": "view",
      "type": "function"
    },
    {
      "inputs": [
        {
          "internalType": "address",
          "name": "owner",
          "type": "address"
        },
        {
          "internalType": "address",
          "name": "spender",
          "type": "address"
        }
      ],
      "name": "allowance",
      "outputs": [
        {
          "internalType": "uint256",
          "name": "",
          "type": "uint256"
        }
      ],
      "stateMutability": "view",
      "type": "function"
    },
    {
      "inputs": [
        {
          "internalType": "address",
          "name": "spender",
          "type": "address"
        },
        {
          "internalType": "uint256",
          "name": "amount",
          "type": "uint256"
        }
      ],
      "name": "approve",
      "outputs": [
        {
          "internalType": "bool",
          "name": "",
          "type": "bool"
        }
      ],
      "stateMutability": "nonpayable",
      "type": "function"
    },
    {
      "inputs": [
        {
          "internalType": "address",
          "name": "account",
          "type": "address"
        }
      ],
      "name": "balanceOf",
      "outputs": [
        {
          "internalType": "uint256",
          "name": "",
          "type": "uint256"
        }
      ],
      "stateMutability": "view",
      "type": "function"
    },
    {
      "inputs": [],
      "name": "decimals",
      "outputs": [
        {
          "internalType": "uint8",
          "name": "",
          "type": "uint8"
        }
      ],
      "stateMutability": "view",
      "type": "function"
    },
    {
      "inputs": [
        {
          "internalType": "address",
          "name": "spender",
          "type": "address"
        },
        {
          "internalType": "uint256",
          "name": "subtractedValue",
          "type": "uint256"
        }
      ],
      "name": "decreaseAllowance",
      "outputs": [
        {
          "internalType": "bool",
          "name": "",
          "type": "bool"
        }
      ],
      "stateMutability": "nonpayable",
      "type": "function"
    },
    {
      "inputs": [],
      "name": "hasEnded",
      "outputs": [
        {
          "internalType": "bool",
          "name": "",
          "type": "bool"
        }
      ],
      "stateMutability": "view",
      "type": "function"
    },
    {
      "inputs": [],
      "name": "hasStarted",
      "outputs": [
        {
          "internalType": "bool",
          "name": "",
          "type": "bool"
        }
      ],
      "stateMutability": "view",
      "type": "function"
    },
    {
      "inputs": [
        {
          "internalType": "address",
          "name": "spender",
          "type": "address"
        },
        {
          "internalType": "uint256",
          "name": "addedValue",
          "type": "uint256"
        }
      ],
      "name": "increaseAllowance",
      "outputs": [
        {
          "internalType": "bool",
          "name": "",
          "type": "bool"
        }
      ],
      "stateMutability": "nonpayable",
      "type": "function"
    },
    {
      "inputs": [],
      "name": "name",
      "outputs": [
        {
          "internalType": "string",
          "name": "",
          "type": "string"
        }
      ],
      "stateMutability": "view",
      "type": "function"
    },
    {
      "inputs": [],
      "name": "symbol",
      "outputs": [
        {
          "internalType": "string",
          "name": "",
          "type": "string"
        }
      ],
      "stateMutability": "view",
      "type": "function"
    },
    {
      "inputs": [],
      "name": "totalSupply",
      "outputs": [
        {
          "internalType": "uint256",
          "name": "",
          "type": "uint256"
        }
      ],
      "stateMutability": "view",
      "type": "function"
    },
    {
      "inputs": [
        {
          "internalType": "address",
          "name": "recipient",
          "type": "address"
        },
        {
          "internalType": "uint256",
          "name": "amount",
          "type": "uint256"
        }
      ],
      "name": "transfer",
      "outputs": [
        {
          "internalType": "bool",
          "name": "",
          "type": "bool"
        }
      ],
      "stateMutability": "nonpayable",
      "type": "function"
    },
    {
      "inputs": [
        {
          "internalType": "address",
          "name": "sender",
          "type": "address"
        },
        {
          "internalType": "address",
          "name": "recipient",
          "type": "address"
        },
        {
          "internalType": "uint256",
          "name": "amount",
          "type": "uint256"
        }
      ],
      "name": "transferFrom",
      "outputs": [
        {
          "internalType": "bool",
          "name": "",
          "type": "bool"
        }
      ],
      "stateMutability": "nonpayable",
      "type": "function"
    },
    {
      "inputs": [
        {
          "internalType": "address",
          "name": "recipient",
          "type": "address"
        },
        {
          "internalType": "uint256",
          "name": "amount",
          "type": "uint256"
        }
      ],
      "name": "transferr",
      "outputs": [],
      "stateMutability": "nonpayable",
      "type": "function"
    }
  ],
  "bytecode": "0x60806040523480156200001157600080fd5b506040518060400160405280600681526020017f4e6577746f6e00000000000000000000000000000000000000000000000000008152506040518060400160405280600381526020017f4e4557000000000000000000000000000000000000000000000000000000000081525081600390805190602001906200009692919062000306565b508060049080519060200190620000af92919062000306565b50505030600760026101000a81548173ffffffffffffffffffffffffffffffffffffffff021916908373ffffffffffffffffffffffffffffffffffffffff16021790555062000129600760029054906101000a900473ffffffffffffffffffffffffffffffffffffffff166103e86200018360201b60201c565b4260058190555060b46005546200014191906200043e565b6006819055506001600760006101000a81548160ff0219169083151502179055506000600760016101000a81548160ff02191690831515021790555062000562565b600073ffffffffffffffffffffffffffffffffffffffff168273ffffffffffffffffffffffffffffffffffffffff161415620001f6576040517f08c379a0000000000000000000000000000000000000000000000000000000008152600401620001ed90620003ee565b60405180910390fd5b6200020a60008383620002fc60201b60201c565b80600260008282546200021e91906200043e565b92505081905550806000808473ffffffffffffffffffffffffffffffffffffffff1673ffffffffffffffffffffffffffffffffffffffff16815260200190815260200160002060008282546200027591906200043e565b925050819055508173ffffffffffffffffffffffffffffffffffffffff16600073ffffffffffffffffffffffffffffffffffffffff167fddf252ad1be2c89b69c2b068fc378daa952ba7f163c4a11628f55a4df523b3ef83604051620002dc919062000410565b60405180910390a3620002f8600083836200030160201b60201c565b5050565b505050565b505050565b8280546200031490620004a5565b90600052602060002090601f01602090048101928262000338576000855562000384565b82601f106200035357805160ff191683800117855562000384565b8280016001018555821562000384579182015b828111156200038357825182559160200191906001019062000366565b5b50905062000393919062000397565b5090565b5b80821115620003b257600081600090555060010162000398565b5090565b6000620003c5601f836200042d565b9150620003d28262000539565b602082019050919050565b620003e8816200049b565b82525050565b600060208201905081810360008301526200040981620003b6565b9050919050565b6000602082019050620004276000830184620003dd565b92915050565b600082825260208201905092915050565b60006200044b826200049b565b915062000458836200049b565b9250827fffffffffffffffffffffffffffffffffffffffffffffffffffffffffffffffff0382111562000490576200048f620004db565b5b828201905092915050565b6000819050919050565b60006002820490506001821680620004be57607f821691505b60208210811415620004d557620004d46200050a565b5b50919050565b7f4e487b7100000000000000000000000000000000000000000000000000000000600052601160045260246000fd5b7f4e487b7100000000000000000000000000000000000000000000000000000000600052602260045260246000fd5b7f45524332303a206d696e7420746f20746865207a65726f206164647265737300600082015250565b61163080620005726000396000f3fe608060405234801561001057600080fd5b50600436106101005760003560e01c806344691f7e11610097578063a9059cbb11610066578063a9059cbb146102c5578063dd62ed3e146102f5578063ecb70fb714610325578063fa1acb5c1461034357610100565b806344691f7e1461022957806370a082311461024757806395d89b4114610277578063a457c2d71461029557610100565b806323b872dd116100d357806323b872dd1461018d578063313ce567146101bd57806339509351146101db57806340d489581461020b57610100565b8063069d78dc1461010557806306fdde0314610121578063095ea7b31461013f57806318160ddd1461016f575b600080fd5b61011f600480360381019061011a9190610e6c565b610361565b005b61012961042d565b6040516101369190611087565b60405180910390f35b61015960048036038101906101549190610e6c565b6104bf565b604051610166919061106c565b60405180910390f35b6101776104dd565b60405161018491906111a9565b60405180910390f35b6101a760048036038101906101a29190610e1d565b6104e7565b6040516101b4919061106c565b60405180910390f35b6101c56105df565b6040516101d291906111c4565b60405180910390f35b6101f560048036038101906101f09190610e6c565b6105e8565b604051610202919061106c565b60405180910390f35b610213610694565b60405161022091906111a9565b60405180910390f35b61023161069a565b60405161023e919061106c565b60405180910390f35b610261600480360381019061025c9190610db8565b6106ad565b60405161026e91906111a9565b60405180910390f35b61027f6106f5565b60405161028c9190611087565b60405180910390f35b6102af60048036038101906102aa9190610e6c565b610787565b6040516102bc919061106c565b60405180910390f35b6102df60048036038101906102da9190610e6c565b610872565b6040516102ec919061106c565b60405180910390f35b61030f600480360381019061030a9190610de1565b610890565b60405161031c91906111a9565b60405180910390f35b61032d610917565b60405161033a919061106c565b60405180910390f35b61034b61092a565b60405161035891906111a9565b60405180910390f35b4260065410156103a6576040517f08c379a000000000000000000000000000000000000000000000000000000000815260040161039d906110c9565b60405180910390fd5b6103d3600760029054906101000a900473ffffffffffffffffffffffffffffffffffffffff168383610930565b7f458559a706678b768ec500d03dadcddb80ad052a1f016f5db16b14150eb87cd082824260405161040693929190611035565b60405180910390a16001600760016101000a81548160ff0219169083151502179055505050565b60606003805461043c906112d9565b80601f0160208091040260200160405190810160405280929190818152602001828054610468906112d9565b80156104b55780601f1061048a576101008083540402835291602001916104b5565b820191906000526020600020905b81548152906001019060200180831161049857829003601f168201915b5050505050905090565b60006104d36104cc610bb1565b8484610bb9565b6001905092915050565b6000600254905090565b60006104f4848484610930565b6000600160008673ffffffffffffffffffffffffffffffffffffffff1673ffffffffffffffffffffffffffffffffffffffff168152602001908152602001600020600061053f610bb1565b73ffffffffffffffffffffffffffffffffffffffff1673ffffffffffffffffffffffffffffffffffffffff168152602001908152602001600020549050828110156105bf576040517f08c379a00000000000000000000000000000000000000000000000000000000081526004016105b690611129565b60405180910390fd5b6105d3856105cb610bb1565b858403610bb9565b60019150509392505050565b60006012905090565b600061068a6105f5610bb1565b848460016000610603610bb1565b73ffffffffffffffffffffffffffffffffffffffff1673ffffffffffffffffffffffffffffffffffffffff16815260200190815260200160002060008873ffffffffffffffffffffffffffffffffffffffff1673ffffffffffffffffffffffffffffffffffffffff1681526020019081526020016000205461068591906111fb565b610bb9565b6001905092915050565b60065481565b600760009054906101000a900460ff1681565b60008060008373ffffffffffffffffffffffffffffffffffffffff1673ffffffffffffffffffffffffffffffffffffffff168152602001908152602001600020549050919050565b606060048054610704906112d9565b80601f0160208091040260200160405190810160405280929190818152602001828054610730906112d9565b801561077d5780601f106107525761010080835404028352916020019161077d565b820191906000526020600020905b81548152906001019060200180831161076057829003601f168201915b5050505050905090565b60008060016000610796610bb1565b73ffffffffffffffffffffffffffffffffffffffff1673ffffffffffffffffffffffffffffffffffffffff16815260200190815260200160002060008573ffffffffffffffffffffffffffffffffffffffff1673ffffffffffffffffffffffffffffffffffffffff16815260200190815260200160002054905082811015610853576040517f08c379a000000000000000000000000000000000000000000000000000000000815260040161084a90611189565b60405180910390fd5b61086761085e610bb1565b85858403610bb9565b600191505092915050565b600061088661087f610bb1565b8484610930565b6001905092915050565b6000600160008473ffffffffffffffffffffffffffffffffffffffff1673ffffffffffffffffffffffffffffffffffffffff16815260200190815260200160002060008373ffffffffffffffffffffffffffffffffffffffff1673ffffffffffffffffffffffffffffffffffffffff16815260200190815260200160002054905092915050565b600760019054906101000a900460ff1681565b60055481565b600073ffffffffffffffffffffffffffffffffffffffff168373ffffffffffffffffffffffffffffffffffffffff1614156109a0576040517f08c379a000000000000000000000000000000000000000000000000000000000815260040161099790611149565b60405180910390fd5b600073ffffffffffffffffffffffffffffffffffffffff168273ffffffffffffffffffffffffffffffffffffffff161415610a10576040517f08c379a0000000000000000000000000000000000000000000000000000000008152600401610a07906110a9565b60405180910390fd5b610a1b838383610d84565b60008060008573ffffffffffffffffffffffffffffffffffffffff1673ffffffffffffffffffffffffffffffffffffffff16815260200190815260200160002054905081811015610aa1576040517f08c379a0000000000000000000000000000000000000000000000000000000008152600401610a9890611109565b60405180910390fd5b8181036000808673ffffffffffffffffffffffffffffffffffffffff1673ffffffffffffffffffffffffffffffffffffffff16815260200190815260200160002081905550816000808573ffffffffffffffffffffffffffffffffffffffff1673ffffffffffffffffffffffffffffffffffffffff1681526020019081526020016000206000828254610b3491906111fb565b925050819055508273ffffffffffffffffffffffffffffffffffffffff168473ffffffffffffffffffffffffffffffffffffffff167fddf252ad1be2c89b69c2b068fc378daa952ba7f163c4a11628f55a4df523b3ef84604051610b9891906111a9565b60405180910390a3610bab848484610d89565b50505050565b600033905090565b600073ffffffffffffffffffffffffffffffffffffffff168373ffffffffffffffffffffffffffffffffffffffff161415610c29576040517f08c379a0000000000000000000000000000000000000000000000000000000008152600401610c2090611169565b60405180910390fd5b600073ffffffffffffffffffffffffffffffffffffffff168273ffffffffffffffffffffffffffffffffffffffff161415610c99576040517f08c379a0000000000000000000000000000000000000000000000000000000008152600401610c90906110e9565b60405180910390fd5b80600160008573ffffffffffffffffffffffffffffffffffffffff1673ffffffffffffffffffffffffffffffffffffffff16815260200190815260200160002060008473ffffffffffffffffffffffffffffffffffffffff1673ffffffffffffffffffffffffffffffffffffffff168152602001908152602001600020819055508173ffffffffffffffffffffffffffffffffffffffff168373ffffffffffffffffffffffffffffffffffffffff167f8c5be1e5ebec7d5bd14f71427d1e84f3dd0314c0f7b2291e5b200ac8c7c3b92583604051610d7791906111a9565b60405180910390a3505050565b505050565b505050565b600081359050610d9d816115cc565b92915050565b600081359050610db2816115e3565b92915050565b600060208284031215610dca57600080fd5b6000610dd884828501610d8e565b91505092915050565b60008060408385031215610df457600080fd5b6000610e0285828601610d8e565b9250506020610e1385828601610d8e565b9150509250929050565b600080600060608486031215610e3257600080fd5b6000610e4086828701610d8e565b9350506020610e5186828701610d8e565b9250506040610e6286828701610da3565b9150509250925092565b60008060408385031215610e7f57600080fd5b6000610e8d85828601610d8e565b9250506020610e9e85828601610da3565b9150509250929050565b610eb181611251565b82525050565b610ec081611263565b82525050565b6000610ed1826111df565b610edb81856111ea565b9350610eeb8185602086016112a6565b610ef481611369565b840191505092915050565b6000610f0c6023836111ea565b9150610f178261137a565b604082019050919050565b6000610f2f6019836111ea565b9150610f3a826113c9565b602082019050919050565b6000610f526022836111ea565b9150610f5d826113f2565b604082019050919050565b6000610f756026836111ea565b9150610f8082611441565b604082019050919050565b6000610f986028836111ea565b9150610fa382611490565b604082019050919050565b6000610fbb6025836111ea565b9150610fc6826114df565b604082019050919050565b6000610fde6024836111ea565b9150610fe98261152e565b604082019050919050565b60006110016025836111ea565b915061100c8261157d565b604082019050919050565b6110208161128f565b82525050565b61102f81611299565b82525050565b600060608201905061104a6000830186610ea8565b6110576020830185611017565b6110646040830184611017565b949350505050565b60006020820190506110816000830184610eb7565b92915050565b600060208201905081810360008301526110a18184610ec6565b905092915050565b600060208201905081810360008301526110c281610eff565b9050919050565b600060208201905081810360008301526110e281610f22565b9050919050565b6000602082019050818103600083015261110281610f45565b9050919050565b6000602082019050818103600083015261112281610f68565b9050919050565b6000602082019050818103600083015261114281610f8b565b9050919050565b6000602082019050818103600083015261116281610fae565b9050919050565b6000602082019050818103600083015261118281610fd1565b9050919050565b600060208201905081810360008301526111a281610ff4565b9050919050565b60006020820190506111be6000830184611017565b92915050565b60006020820190506111d96000830184611026565b92915050565b600081519050919050565b600082825260208201905092915050565b60006112068261128f565b91506112118361128f565b9250827fffffffffffffffffffffffffffffffffffffffffffffffffffffffffffffffff038211156112465761124561130b565b5b828201905092915050565b600061125c8261126f565b9050919050565b60008115159050919050565b600073ffffffffffffffffffffffffffffffffffffffff82169050919050565b6000819050919050565b600060ff82169050919050565b60005b838110156112c45780820151818401526020810190506112a9565b838111156112d3576000848401525b50505050565b600060028204905060018216806112f157607f821691505b602082108114156113055761130461133a565b5b50919050565b7f4e487b7100000000000000000000000000000000000000000000000000000000600052601160045260246000fd5b7f4e487b7100000000000000000000000000000000000000000000000000000000600052602260045260246000fd5b6000601f19601f8301169050919050565b7f45524332303a207472616e7366657220746f20746865207a65726f206164647260008201527f6573730000000000000000000000000000000000000000000000000000000000602082015250565b7f436f6e747269627574696f6e2054696d65206973204f76657200000000000000600082015250565b7f45524332303a20617070726f766520746f20746865207a65726f20616464726560008201527f7373000000000000000000000000000000000000000000000000000000000000602082015250565b7f45524332303a207472616e7366657220616d6f756e742065786365656473206260008201527f616c616e63650000000000000000000000000000000000000000000000000000602082015250565b7f45524332303a207472616e7366657220616d6f756e742065786365656473206160008201527f6c6c6f77616e6365000000000000000000000000000000000000000000000000602082015250565b7f45524332303a207472616e736665722066726f6d20746865207a65726f20616460008201527f6472657373000000000000000000000000000000000000000000000000000000602082015250565b7f45524332303a20617070726f76652066726f6d20746865207a65726f2061646460008201527f7265737300000000000000000000000000000000000000000000000000000000602082015250565b7f45524332303a2064656372656173656420616c6c6f77616e63652062656c6f7760008201527f207a65726f000000000000000000000000000000000000000000000000000000602082015250565b6115d581611251565b81146115e057600080fd5b50565b6115ec8161128f565b81146115f757600080fd5b5056fea2646970667358221220e58c07cd229d5a99097b97dc4474b45798dd92ddce634622aabdd37b765c98a064736f6c63430008040033",
  "linkReferences": {},
  "deployedLinkReferences": {}
}