{
  "_format": "hh-sol-artifact-1",
  "contractName": "NEWToken",
  "sourceName": "contracts/Token.sol",
  "abi": [
    {
      "inputs": [],
      "stateMutability": "nonpayable",
      "type": "constructor"
    },
    {
      "anonymous": false,
      "inputs": [
        {
          "indexed": true,
          "internalType": "address",
          "name": "owner",
          "type": "address"
        },
        {
          "indexed": true,
          "internalType": "address",
          "name": "spender",
          "type": "address"
        },
        {
          "indexed": false,
          "internalType": "uint256",
          "name": "value",
          "type": "uint256"
        }
      ],
      "name": "Approval",
      "type": "event"
    },
    {
      "anonymous": false,
      "inputs": [
        {
          "indexed": true,
          "internalType": "address",
          "name": "from",
          "type": "address"
        },
        {
          "indexed": true,
          "internalType": "address",
          "name": "to",
          "type": "address"
        },
        {
          "indexed": false,
          "internalType": "uint256",
          "name": "value",
          "type": "uint256"
        }
      ],
      "name": "Transfer",
      "type": "event"
    },
    {
      "anonymous": false,
      "inputs": [
        {
          "indexed": false,
          "internalType": "address",
          "name": "recipient",
          "type": "address"
        },
        {
          "indexed": false,
          "internalType": "uint256",
          "name": "tokensSent",
          "type": "uint256"
        },
        {
          "indexed": false,
          "internalType": "uint256",
          "name": "currentTime",
          "type": "uint256"
        }
      ],
      "name": "Transfers",
      "type": "event"
    },
    {
      "inputs": [],
      "name": "_endTime",
      "outputs": [
        {
          "internalType": "uint256",
          "name": "",
          "type": "uint256"
        }
      ],
      "stateMutability": "view",
      "type": "function"
    },
    {
      "inputs": [],
      "name": "_startTime",
      "outputs": [
        {
          "internalType": "uint256",
          "name": "",
          "type": "uint256"
        }
      ],
      "stateMutability": "view",
      "type": "function"
    },
    {
      "inputs": [
        {
          "internalType": "address",
          "name": "owner",
          "type": "address"
        },
        {
          "internalType": "address",
          "name": "spender",
          "type": "address"
        }
      ],
      "name": "allowance",
      "outputs": [
        {
          "internalType": "uint256",
          "name": "",
          "type": "uint256"
        }
      ],
      "stateMutability": "view",
      "type": "function"
    },
    {
      "inputs": [
        {
          "internalType": "address",
          "name": "spender",
          "type": "address"
        },
        {
          "internalType": "uint256",
          "name": "amount",
          "type": "uint256"
        }
      ],
      "name": "approve",
      "outputs": [
        {
          "internalType": "bool",
          "name": "",
          "type": "bool"
        }
      ],
      "stateMutability": "nonpayable",
      "type": "function"
    },
    {
      "inputs": [
        {
          "internalType": "address",
          "name": "account",
          "type": "address"
        }
      ],
      "name": "balanceOf",
      "outputs": [
        {
          "internalType": "uint256",
          "name": "",
          "type": "uint256"
        }
      ],
      "stateMutability": "view",
      "type": "function"
    },
    {
      "inputs": [],
      "name": "decimals",
      "outputs": [
        {
          "internalType": "uint8",
          "name": "",
          "type": "uint8"
        }
      ],
      "stateMutability": "view",
      "type": "function"
    },
    {
      "inputs": [
        {
          "internalType": "address",
          "name": "spender",
          "type": "address"
        },
        {
          "internalType": "uint256",
          "name": "subtractedValue",
          "type": "uint256"
        }
      ],
      "name": "decreaseAllowance",
      "outputs": [
        {
          "internalType": "bool",
          "name": "",
          "type": "bool"
        }
      ],
      "stateMutability": "nonpayable",
      "type": "function"
    },
    {
      "inputs": [],
      "name": "hasEnded",
      "outputs": [
        {
          "internalType": "bool",
          "name": "",
          "type": "bool"
        }
      ],
      "stateMutability": "view",
      "type": "function"
    },
    {
      "inputs": [],
      "name": "hasStarted",
      "outputs": [
        {
          "internalType": "bool",
          "name": "",
          "type": "bool"
        }
      ],
      "stateMutability": "view",
      "type": "function"
    },
    {
      "inputs": [
        {
          "internalType": "address",
          "name": "spender",
          "type": "address"
        },
        {
          "internalType": "uint256",
          "name": "addedValue",
          "type": "uint256"
        }
      ],
      "name": "increaseAllowance",
      "outputs": [
        {
          "internalType": "bool",
          "name": "",
          "type": "bool"
        }
      ],
      "stateMutability": "nonpayable",
      "type": "function"
    },
    {
      "inputs": [],
      "name": "name",
      "outputs": [
        {
          "internalType": "string",
          "name": "",
          "type": "string"
        }
      ],
      "stateMutability": "view",
      "type": "function"
    },
    {
      "inputs": [],
      "name": "owner",
      "outputs": [
        {
          "internalType": "address",
          "name": "",
          "type": "address"
        }
      ],
      "stateMutability": "view",
      "type": "function"
    },
    {
      "inputs": [],
      "name": "symbol",
      "outputs": [
        {
          "internalType": "string",
          "name": "",
          "type": "string"
        }
      ],
      "stateMutability": "view",
      "type": "function"
    },
    {
      "inputs": [],
      "name": "totalSupply",
      "outputs": [
        {
          "internalType": "uint256",
          "name": "",
          "type": "uint256"
        }
      ],
      "stateMutability": "view",
      "type": "function"
    },
    {
      "inputs": [
        {
          "internalType": "address",
          "name": "recipient",
          "type": "address"
        },
        {
          "internalType": "uint256",
          "name": "amount",
          "type": "uint256"
        }
      ],
      "name": "transfer",
      "outputs": [
        {
          "internalType": "bool",
          "name": "",
          "type": "bool"
        }
      ],
      "stateMutability": "nonpayable",
      "type": "function"
    },
    {
      "inputs": [
        {
          "internalType": "address",
          "name": "sender",
          "type": "address"
        },
        {
          "internalType": "address",
          "name": "recipient",
          "type": "address"
        },
        {
          "internalType": "uint256",
          "name": "amount",
          "type": "uint256"
        }
      ],
      "name": "transferFrom",
      "outputs": [
        {
          "internalType": "bool",
          "name": "",
          "type": "bool"
        }
      ],
      "stateMutability": "nonpayable",
      "type": "function"
    },
    {
      "inputs": [
        {
          "internalType": "address",
          "name": "recipient",
          "type": "address"
        },
        {
          "internalType": "uint256",
          "name": "amount",
          "type": "uint256"
        }
      ],
      "name": "transferr",
      "outputs": [],
      "stateMutability": "nonpayable",
      "type": "function"
    }
  ],
  "bytecode": "0x60806040523480156200001157600080fd5b506040518060400160405280600681526020017f4e6577746f6e00000000000000000000000000000000000000000000000000008152506040518060400160405280600381526020017f4e4557000000000000000000000000000000000000000000000000000000000081525081600390805190602001906200009692919062000306565b508060049080519060200190620000af92919062000306565b50505030600760026101000a81548173ffffffffffffffffffffffffffffffffffffffff021916908373ffffffffffffffffffffffffffffffffffffffff16021790555062000129600760029054906101000a900473ffffffffffffffffffffffffffffffffffffffff166103e86200018360201b60201c565b4260058190555060b46005546200014191906200043e565b6006819055506001600760006101000a81548160ff0219169083151502179055506000600760016101000a81548160ff02191690831515021790555062000562565b600073ffffffffffffffffffffffffffffffffffffffff168273ffffffffffffffffffffffffffffffffffffffff161415620001f6576040517f08c379a0000000000000000000000000000000000000000000000000000000008152600401620001ed90620003ee565b60405180910390fd5b6200020a60008383620002fc60201b60201c565b80600260008282546200021e91906200043e565b92505081905550806000808473ffffffffffffffffffffffffffffffffffffffff1673ffffffffffffffffffffffffffffffffffffffff16815260200190815260200160002060008282546200027591906200043e565b925050819055508173ffffffffffffffffffffffffffffffffffffffff16600073ffffffffffffffffffffffffffffffffffffffff167fddf252ad1be2c89b69c2b068fc378daa952ba7f163c4a11628f55a4df523b3ef83604051620002dc919062000410565b60405180910390a3620002f8600083836200030160201b60201c565b5050565b505050565b505050565b8280546200031490620004a5565b90600052602060002090601f01602090048101928262000338576000855562000384565b82601f106200035357805160ff191683800117855562000384565b8280016001018555821562000384579182015b828111156200038357825182559160200191906001019062000366565b5b50905062000393919062000397565b5090565b5b80821115620003b257600081600090555060010162000398565b5090565b6000620003c5601f836200042d565b9150620003d28262000539565b602082019050919050565b620003e8816200049b565b82525050565b600060208201905081810360008301526200040981620003b6565b9050919050565b6000602082019050620004276000830184620003dd565b92915050565b600082825260208201905092915050565b60006200044b826200049b565b915062000458836200049b565b9250827fffffffffffffffffffffffffffffffffffffffffffffffffffffffffffffffff0382111562000490576200048f620004db565b5b828201905092915050565b6000819050919050565b60006002820490506001821680620004be57607f821691505b60208210811415620004d557620004d46200050a565b5b50919050565b7f4e487b7100000000000000000000000000000000000000000000000000000000600052601160045260246000fd5b7f4e487b7100000000000000000000000000000000000000000000000000000000600052602260045260246000fd5b7f45524332303a206d696e7420746f20746865207a65726f206164647265737300600082015250565b61169a80620005726000396000f3fe608060405234801561001057600080fd5b506004361061010b5760003560e01c806344691f7e116100a2578063a457c2d711610071578063a457c2d7146102be578063a9059cbb146102ee578063dd62ed3e1461031e578063ecb70fb71461034e578063fa1acb5c1461036c5761010b565b806344691f7e1461023457806370a08231146102525780638da5cb5b1461028257806395d89b41146102a05761010b565b806323b872dd116100de57806323b872dd14610198578063313ce567146101c857806339509351146101e657806340d48958146102165761010b565b8063069d78dc1461011057806306fdde031461012c578063095ea7b31461014a57806318160ddd1461017a575b600080fd5b61012a60048036038101906101259190610ebb565b61038a565b005b610134610456565b60405161014191906110f1565b60405180910390f35b610164600480360381019061015f9190610ebb565b6104e8565b60405161017191906110d6565b60405180910390f35b610182610506565b60405161018f9190611213565b60405180910390f35b6101b260048036038101906101ad9190610e6c565b610510565b6040516101bf91906110d6565b60405180910390f35b6101d0610608565b6040516101dd919061122e565b60405180910390f35b61020060048036038101906101fb9190610ebb565b610611565b60405161020d91906110d6565b60405180910390f35b61021e6106bd565b60405161022b9190611213565b60405180910390f35b61023c6106c3565b60405161024991906110d6565b60405180910390f35b61026c60048036038101906102679190610e07565b6106d6565b6040516102799190611213565b60405180910390f35b61028a61071e565b6040516102979190611084565b60405180910390f35b6102a8610744565b6040516102b591906110f1565b60405180910390f35b6102d860048036038101906102d39190610ebb565b6107d6565b6040516102e591906110d6565b60405180910390f35b61030860048036038101906103039190610ebb565b6108c1565b60405161031591906110d6565b60405180910390f35b61033860048036038101906103339190610e30565b6108df565b6040516103459190611213565b60405180910390f35b610356610966565b60405161036391906110d6565b60405180910390f35b610374610979565b6040516103819190611213565b60405180910390f35b4260065410156103cf576040517f08c379a00000000000000000000000000000000000000000000000000000000081526004016103c690611133565b60405180910390fd5b6103fc600760029054906101000a900473ffffffffffffffffffffffffffffffffffffffff16838361097f565b7f458559a706678b768ec500d03dadcddb80ad052a1f016f5db16b14150eb87cd082824260405161042f9392919061109f565b60405180910390a16001600760016101000a81548160ff0219169083151502179055505050565b60606003805461046590611343565b80601f016020809104026020016040519081016040528092919081815260200182805461049190611343565b80156104de5780601f106104b3576101008083540402835291602001916104de565b820191906000526020600020905b8154815290600101906020018083116104c157829003601f168201915b5050505050905090565b60006104fc6104f5610c00565b8484610c08565b6001905092915050565b6000600254905090565b600061051d84848461097f565b6000600160008673ffffffffffffffffffffffffffffffffffffffff1673ffffffffffffffffffffffffffffffffffffffff1681526020019081526020016000206000610568610c00565b73ffffffffffffffffffffffffffffffffffffffff1673ffffffffffffffffffffffffffffffffffffffff168152602001908152602001600020549050828110156105e8576040517f08c379a00000000000000000000000000000000000000000000000000000000081526004016105df90611193565b60405180910390fd5b6105fc856105f4610c00565b858403610c08565b60019150509392505050565b60006012905090565b60006106b361061e610c00565b84846001600061062c610c00565b73ffffffffffffffffffffffffffffffffffffffff1673ffffffffffffffffffffffffffffffffffffffff16815260200190815260200160002060008873ffffffffffffffffffffffffffffffffffffffff1673ffffffffffffffffffffffffffffffffffffffff168152602001908152602001600020546106ae9190611265565b610c08565b6001905092915050565b60065481565b600760009054906101000a900460ff1681565b60008060008373ffffffffffffffffffffffffffffffffffffffff1673ffffffffffffffffffffffffffffffffffffffff168152602001908152602001600020549050919050565b600760029054906101000a900473ffffffffffffffffffffffffffffffffffffffff1681565b60606004805461075390611343565b80601f016020809104026020016040519081016040528092919081815260200182805461077f90611343565b80156107cc5780601f106107a1576101008083540402835291602001916107cc565b820191906000526020600020905b8154815290600101906020018083116107af57829003601f168201915b5050505050905090565b600080600160006107e5610c00565b73ffffffffffffffffffffffffffffffffffffffff1673ffffffffffffffffffffffffffffffffffffffff16815260200190815260200160002060008573ffffffffffffffffffffffffffffffffffffffff1673ffffffffffffffffffffffffffffffffffffffff168152602001908152602001600020549050828110156108a2576040517f08c379a0000000000000000000000000000000000000000000000000000000008152600401610899906111f3565b60405180910390fd5b6108b66108ad610c00565b85858403610c08565b600191505092915050565b60006108d56108ce610c00565b848461097f565b6001905092915050565b6000600160008473ffffffffffffffffffffffffffffffffffffffff1673ffffffffffffffffffffffffffffffffffffffff16815260200190815260200160002060008373ffffffffffffffffffffffffffffffffffffffff1673ffffffffffffffffffffffffffffffffffffffff16815260200190815260200160002054905092915050565b600760019054906101000a900460ff1681565b60055481565b600073ffffffffffffffffffffffffffffffffffffffff168373ffffffffffffffffffffffffffffffffffffffff1614156109ef576040517f08c379a00000000000000000000000000000000000000000000000000000000081526004016109e6906111b3565b60405180910390fd5b600073ffffffffffffffffffffffffffffffffffffffff168273ffffffffffffffffffffffffffffffffffffffff161415610a5f576040517f08c379a0000000000000000000000000000000000000000000000000000000008152600401610a5690611113565b60405180910390fd5b610a6a838383610dd3565b60008060008573ffffffffffffffffffffffffffffffffffffffff1673ffffffffffffffffffffffffffffffffffffffff16815260200190815260200160002054905081811015610af0576040517f08c379a0000000000000000000000000000000000000000000000000000000008152600401610ae790611173565b60405180910390fd5b8181036000808673ffffffffffffffffffffffffffffffffffffffff1673ffffffffffffffffffffffffffffffffffffffff16815260200190815260200160002081905550816000808573ffffffffffffffffffffffffffffffffffffffff1673ffffffffffffffffffffffffffffffffffffffff1681526020019081526020016000206000828254610b839190611265565b925050819055508273ffffffffffffffffffffffffffffffffffffffff168473ffffffffffffffffffffffffffffffffffffffff167fddf252ad1be2c89b69c2b068fc378daa952ba7f163c4a11628f55a4df523b3ef84604051610be79190611213565b60405180910390a3610bfa848484610dd8565b50505050565b600033905090565b600073ffffffffffffffffffffffffffffffffffffffff168373ffffffffffffffffffffffffffffffffffffffff161415610c78576040517f08c379a0000000000000000000000000000000000000000000000000000000008152600401610c6f906111d3565b60405180910390fd5b600073ffffffffffffffffffffffffffffffffffffffff168273ffffffffffffffffffffffffffffffffffffffff161415610ce8576040517f08c379a0000000000000000000000000000000000000000000000000000000008152600401610cdf90611153565b60405180910390fd5b80600160008573ffffffffffffffffffffffffffffffffffffffff1673ffffffffffffffffffffffffffffffffffffffff16815260200190815260200160002060008473ffffffffffffffffffffffffffffffffffffffff1673ffffffffffffffffffffffffffffffffffffffff168152602001908152602001600020819055508173ffffffffffffffffffffffffffffffffffffffff168373ffffffffffffffffffffffffffffffffffffffff167f8c5be1e5ebec7d5bd14f71427d1e84f3dd0314c0f7b2291e5b200ac8c7c3b92583604051610dc69190611213565b60405180910390a3505050565b505050565b505050565b600081359050610dec81611636565b92915050565b600081359050610e018161164d565b92915050565b600060208284031215610e1957600080fd5b6000610e2784828501610ddd565b91505092915050565b60008060408385031215610e4357600080fd5b6000610e5185828601610ddd565b9250506020610e6285828601610ddd565b9150509250929050565b600080600060608486031215610e8157600080fd5b6000610e8f86828701610ddd565b9350506020610ea086828701610ddd565b9250506040610eb186828701610df2565b9150509250925092565b60008060408385031215610ece57600080fd5b6000610edc85828601610ddd565b9250506020610eed85828601610df2565b9150509250929050565b610f00816112bb565b82525050565b610f0f816112cd565b82525050565b6000610f2082611249565b610f2a8185611254565b9350610f3a818560208601611310565b610f43816113d3565b840191505092915050565b6000610f5b602383611254565b9150610f66826113e4565b604082019050919050565b6000610f7e601983611254565b9150610f8982611433565b602082019050919050565b6000610fa1602283611254565b9150610fac8261145c565b604082019050919050565b6000610fc4602683611254565b9150610fcf826114ab565b604082019050919050565b6000610fe7602883611254565b9150610ff2826114fa565b604082019050919050565b600061100a602583611254565b915061101582611549565b604082019050919050565b600061102d602483611254565b915061103882611598565b604082019050919050565b6000611050602583611254565b915061105b826115e7565b604082019050919050565b61106f816112f9565b82525050565b61107e81611303565b82525050565b60006020820190506110996000830184610ef7565b92915050565b60006060820190506110b46000830186610ef7565b6110c16020830185611066565b6110ce6040830184611066565b949350505050565b60006020820190506110eb6000830184610f06565b92915050565b6000602082019050818103600083015261110b8184610f15565b905092915050565b6000602082019050818103600083015261112c81610f4e565b9050919050565b6000602082019050818103600083015261114c81610f71565b9050919050565b6000602082019050818103600083015261116c81610f94565b9050919050565b6000602082019050818103600083015261118c81610fb7565b9050919050565b600060208201905081810360008301526111ac81610fda565b9050919050565b600060208201905081810360008301526111cc81610ffd565b9050919050565b600060208201905081810360008301526111ec81611020565b9050919050565b6000602082019050818103600083015261120c81611043565b9050919050565b60006020820190506112286000830184611066565b92915050565b60006020820190506112436000830184611075565b92915050565b600081519050919050565b600082825260208201905092915050565b6000611270826112f9565b915061127b836112f9565b9250827fffffffffffffffffffffffffffffffffffffffffffffffffffffffffffffffff038211156112b0576112af611375565b5b828201905092915050565b60006112c6826112d9565b9050919050565b60008115159050919050565b600073ffffffffffffffffffffffffffffffffffffffff82169050919050565b6000819050919050565b600060ff82169050919050565b60005b8381101561132e578082015181840152602081019050611313565b8381111561133d576000848401525b50505050565b6000600282049050600182168061135b57607f821691505b6020821081141561136f5761136e6113a4565b5b50919050565b7f4e487b7100000000000000000000000000000000000000000000000000000000600052601160045260246000fd5b7f4e487b7100000000000000000000000000000000000000000000000000000000600052602260045260246000fd5b6000601f19601f8301169050919050565b7f45524332303a207472616e7366657220746f20746865207a65726f206164647260008201527f6573730000000000000000000000000000000000000000000000000000000000602082015250565b7f436f6e747269627574696f6e2054696d65206973204f76657200000000000000600082015250565b7f45524332303a20617070726f766520746f20746865207a65726f20616464726560008201527f7373000000000000000000000000000000000000000000000000000000000000602082015250565b7f45524332303a207472616e7366657220616d6f756e742065786365656473206260008201527f616c616e63650000000000000000000000000000000000000000000000000000602082015250565b7f45524332303a207472616e7366657220616d6f756e742065786365656473206160008201527f6c6c6f77616e6365000000000000000000000000000000000000000000000000602082015250565b7f45524332303a207472616e736665722066726f6d20746865207a65726f20616460008201527f6472657373000000000000000000000000000000000000000000000000000000602082015250565b7f45524332303a20617070726f76652066726f6d20746865207a65726f2061646460008201527f7265737300000000000000000000000000000000000000000000000000000000602082015250565b7f45524332303a2064656372656173656420616c6c6f77616e63652062656c6f7760008201527f207a65726f000000000000000000000000000000000000000000000000000000602082015250565b61163f816112bb565b811461164a57600080fd5b50565b611656816112f9565b811461166157600080fd5b5056fea26469706673582212204b1a2bc5eda2ccb75b894c76035d8e664e033b58957a55184a813a0de02b929664736f6c63430008040033",
  "linkReferences": {},
  "deployedLinkReferences": {}
}