{
  "_format": "hh-sol-artifact-1",
  "contractName": "NEWToken",
  "sourceName": "contracts/Token.sol",
  "abi": [
    {
      "inputs": [],
      "stateMutability": "nonpayable",
      "type": "constructor"
    },
    {
      "anonymous": false,
      "inputs": [
        {
          "indexed": true,
          "internalType": "address",
          "name": "owner",
          "type": "address"
        },
        {
          "indexed": true,
          "internalType": "address",
          "name": "spender",
          "type": "address"
        },
        {
          "indexed": false,
          "internalType": "uint256",
          "name": "value",
          "type": "uint256"
        }
      ],
      "name": "Approval",
      "type": "event"
    },
    {
      "anonymous": false,
      "inputs": [
        {
          "indexed": true,
          "internalType": "address",
          "name": "from",
          "type": "address"
        },
        {
          "indexed": true,
          "internalType": "address",
          "name": "to",
          "type": "address"
        },
        {
          "indexed": false,
          "internalType": "uint256",
          "name": "value",
          "type": "uint256"
        }
      ],
      "name": "Transfer",
      "type": "event"
    },
    {
      "anonymous": false,
      "inputs": [
        {
          "indexed": false,
          "internalType": "address",
          "name": "recipient",
          "type": "address"
        },
        {
          "indexed": false,
          "internalType": "uint256",
          "name": "tokensSent",
          "type": "uint256"
        },
        {
          "indexed": false,
          "internalType": "uint256",
          "name": "currentTime",
          "type": "uint256"
        }
      ],
      "name": "Transfers",
      "type": "event"
    },
    {
      "inputs": [],
      "name": "_endTime",
      "outputs": [
        {
          "internalType": "uint256",
          "name": "",
          "type": "uint256"
        }
      ],
      "stateMutability": "view",
      "type": "function"
    },
    {
      "inputs": [],
      "name": "_startTime",
      "outputs": [
        {
          "internalType": "uint256",
          "name": "",
          "type": "uint256"
        }
      ],
      "stateMutability": "view",
      "type": "function"
    },
    {
      "inputs": [
        {
          "internalType": "address",
          "name": "owner",
          "type": "address"
        },
        {
          "internalType": "address",
          "name": "spender",
          "type": "address"
        }
      ],
      "name": "allowance",
      "outputs": [
        {
          "internalType": "uint256",
          "name": "",
          "type": "uint256"
        }
      ],
      "stateMutability": "view",
      "type": "function"
    },
    {
      "inputs": [
        {
          "internalType": "address",
          "name": "spender",
          "type": "address"
        },
        {
          "internalType": "uint256",
          "name": "amount",
          "type": "uint256"
        }
      ],
      "name": "approve",
      "outputs": [
        {
          "internalType": "bool",
          "name": "",
          "type": "bool"
        }
      ],
      "stateMutability": "nonpayable",
      "type": "function"
    },
    {
      "inputs": [
        {
          "internalType": "address",
          "name": "account",
          "type": "address"
        }
      ],
      "name": "balanceOf",
      "outputs": [
        {
          "internalType": "uint256",
          "name": "",
          "type": "uint256"
        }
      ],
      "stateMutability": "view",
      "type": "function"
    },
    {
      "inputs": [],
      "name": "decimals",
      "outputs": [
        {
          "internalType": "uint8",
          "name": "",
          "type": "uint8"
        }
      ],
      "stateMutability": "view",
      "type": "function"
    },
    {
      "inputs": [
        {
          "internalType": "address",
          "name": "spender",
          "type": "address"
        },
        {
          "internalType": "uint256",
          "name": "subtractedValue",
          "type": "uint256"
        }
      ],
      "name": "decreaseAllowance",
      "outputs": [
        {
          "internalType": "bool",
          "name": "",
          "type": "bool"
        }
      ],
      "stateMutability": "nonpayable",
      "type": "function"
    },
    {
      "inputs": [
        {
          "internalType": "address",
          "name": "spender",
          "type": "address"
        },
        {
          "internalType": "uint256",
          "name": "addedValue",
          "type": "uint256"
        }
      ],
      "name": "increaseAllowance",
      "outputs": [
        {
          "internalType": "bool",
          "name": "",
          "type": "bool"
        }
      ],
      "stateMutability": "nonpayable",
      "type": "function"
    },
    {
      "inputs": [],
      "name": "name",
      "outputs": [
        {
          "internalType": "string",
          "name": "",
          "type": "string"
        }
      ],
      "stateMutability": "view",
      "type": "function"
    },
    {
      "inputs": [],
      "name": "symbol",
      "outputs": [
        {
          "internalType": "string",
          "name": "",
          "type": "string"
        }
      ],
      "stateMutability": "view",
      "type": "function"
    },
    {
      "inputs": [],
      "name": "totalSupply",
      "outputs": [
        {
          "internalType": "uint256",
          "name": "",
          "type": "uint256"
        }
      ],
      "stateMutability": "view",
      "type": "function"
    },
    {
      "inputs": [
        {
          "internalType": "address",
          "name": "recipient",
          "type": "address"
        },
        {
          "internalType": "uint256",
          "name": "amount",
          "type": "uint256"
        }
      ],
      "name": "transfer",
      "outputs": [
        {
          "internalType": "bool",
          "name": "",
          "type": "bool"
        }
      ],
      "stateMutability": "nonpayable",
      "type": "function"
    },
    {
      "inputs": [
        {
          "internalType": "address",
          "name": "sender",
          "type": "address"
        },
        {
          "internalType": "address",
          "name": "recipient",
          "type": "address"
        },
        {
          "internalType": "uint256",
          "name": "amount",
          "type": "uint256"
        }
      ],
      "name": "transferFrom",
      "outputs": [
        {
          "internalType": "bool",
          "name": "",
          "type": "bool"
        }
      ],
      "stateMutability": "nonpayable",
      "type": "function"
    },
    {
      "inputs": [
        {
          "internalType": "address",
          "name": "recipient",
          "type": "address"
        },
        {
          "internalType": "uint256",
          "name": "amount",
          "type": "uint256"
        }
      ],
      "name": "transferr",
      "outputs": [],
      "stateMutability": "nonpayable",
      "type": "function"
    }
  ],
  "bytecode": "0x60806040523480156200001157600080fd5b506040518060400160405280600681526020017f4e6577746f6e00000000000000000000000000000000000000000000000000008152506040518060400160405280600381526020017f4e45570000000000000000000000000000000000000000000000000000000000815250816003908051906020019062000096929190620002d0565b508060049080519060200190620000af929190620002d0565b50505030600760006101000a81548173ffffffffffffffffffffffffffffffffffffffff021916908373ffffffffffffffffffffffffffffffffffffffff16021790555062000129600760009054906101000a900473ffffffffffffffffffffffffffffffffffffffff166103e86200014d60201b60201c565b4260058190555060b460055462000141919062000408565b6006819055506200052c565b600073ffffffffffffffffffffffffffffffffffffffff168273ffffffffffffffffffffffffffffffffffffffff161415620001c0576040517f08c379a0000000000000000000000000000000000000000000000000000000008152600401620001b790620003b8565b60405180910390fd5b620001d460008383620002c660201b60201c565b8060026000828254620001e8919062000408565b92505081905550806000808473ffffffffffffffffffffffffffffffffffffffff1673ffffffffffffffffffffffffffffffffffffffff16815260200190815260200160002060008282546200023f919062000408565b925050819055508173ffffffffffffffffffffffffffffffffffffffff16600073ffffffffffffffffffffffffffffffffffffffff167fddf252ad1be2c89b69c2b068fc378daa952ba7f163c4a11628f55a4df523b3ef83604051620002a69190620003da565b60405180910390a3620002c260008383620002cb60201b60201c565b5050565b505050565b505050565b828054620002de906200046f565b90600052602060002090601f0160209004810192826200030257600085556200034e565b82601f106200031d57805160ff19168380011785556200034e565b828001600101855582156200034e579182015b828111156200034d57825182559160200191906001019062000330565b5b5090506200035d919062000361565b5090565b5b808211156200037c57600081600090555060010162000362565b5090565b60006200038f601f83620003f7565b91506200039c8262000503565b602082019050919050565b620003b28162000465565b82525050565b60006020820190508181036000830152620003d38162000380565b9050919050565b6000602082019050620003f16000830184620003a7565b92915050565b600082825260208201905092915050565b6000620004158262000465565b9150620004228362000465565b9250827fffffffffffffffffffffffffffffffffffffffffffffffffffffffffffffffff038211156200045a5762000459620004a5565b5b828201905092915050565b6000819050919050565b600060028204905060018216806200048857607f821691505b602082108114156200049f576200049e620004d4565b5b50919050565b7f4e487b7100000000000000000000000000000000000000000000000000000000600052601160045260246000fd5b7f4e487b7100000000000000000000000000000000000000000000000000000000600052602260045260246000fd5b7f45524332303a206d696e7420746f20746865207a65726f206164647265737300600082015250565b61159d806200053c6000396000f3fe608060405234801561001057600080fd5b50600436106100ea5760003560e01c806340d489581161008c578063a457c2d711610066578063a457c2d714610261578063a9059cbb14610291578063dd62ed3e146102c1578063fa1acb5c146102f1576100ea565b806340d48958146101f557806370a082311461021357806395d89b4114610243576100ea565b806318160ddd116100c857806318160ddd1461015957806323b872dd14610177578063313ce567146101a757806339509351146101c5576100ea565b8063069d78dc146100ef57806306fdde031461010b578063095ea7b314610129575b600080fd5b61010960048036038101906101049190610dd9565b61030f565b005b6101136103c0565b6040516101209190610ff4565b60405180910390f35b610143600480360381019061013e9190610dd9565b610452565b6040516101509190610fd9565b60405180910390f35b610161610470565b60405161016e9190611116565b60405180910390f35b610191600480360381019061018c9190610d8a565b61047a565b60405161019e9190610fd9565b60405180910390f35b6101af610572565b6040516101bc9190611131565b60405180910390f35b6101df60048036038101906101da9190610dd9565b61057b565b6040516101ec9190610fd9565b60405180910390f35b6101fd610627565b60405161020a9190611116565b60405180910390f35b61022d60048036038101906102289190610d25565b61062d565b60405161023a9190611116565b60405180910390f35b61024b610675565b6040516102589190610ff4565b60405180910390f35b61027b60048036038101906102769190610dd9565b610707565b6040516102889190610fd9565b60405180910390f35b6102ab60048036038101906102a69190610dd9565b6107f2565b6040516102b89190610fd9565b60405180910390f35b6102db60048036038101906102d69190610d4e565b610810565b6040516102e89190611116565b60405180910390f35b6102f9610897565b6040516103069190611116565b60405180910390f35b426006541015610354576040517f08c379a000000000000000000000000000000000000000000000000000000000815260040161034b90611036565b60405180910390fd5b610381600760009054906101000a900473ffffffffffffffffffffffffffffffffffffffff16838361089d565b7f458559a706678b768ec500d03dadcddb80ad052a1f016f5db16b14150eb87cd08282426040516103b493929190610fa2565b60405180910390a15050565b6060600380546103cf90611246565b80601f01602080910402602001604051908101604052809291908181526020018280546103fb90611246565b80156104485780601f1061041d57610100808354040283529160200191610448565b820191906000526020600020905b81548152906001019060200180831161042b57829003601f168201915b5050505050905090565b600061046661045f610b1e565b8484610b26565b6001905092915050565b6000600254905090565b600061048784848461089d565b6000600160008673ffffffffffffffffffffffffffffffffffffffff1673ffffffffffffffffffffffffffffffffffffffff16815260200190815260200160002060006104d2610b1e565b73ffffffffffffffffffffffffffffffffffffffff1673ffffffffffffffffffffffffffffffffffffffff16815260200190815260200160002054905082811015610552576040517f08c379a000000000000000000000000000000000000000000000000000000000815260040161054990611096565b60405180910390fd5b6105668561055e610b1e565b858403610b26565b60019150509392505050565b60006012905090565b600061061d610588610b1e565b848460016000610596610b1e565b73ffffffffffffffffffffffffffffffffffffffff1673ffffffffffffffffffffffffffffffffffffffff16815260200190815260200160002060008873ffffffffffffffffffffffffffffffffffffffff1673ffffffffffffffffffffffffffffffffffffffff168152602001908152602001600020546106189190611168565b610b26565b6001905092915050565b60065481565b60008060008373ffffffffffffffffffffffffffffffffffffffff1673ffffffffffffffffffffffffffffffffffffffff168152602001908152602001600020549050919050565b60606004805461068490611246565b80601f01602080910402602001604051908101604052809291908181526020018280546106b090611246565b80156106fd5780601f106106d2576101008083540402835291602001916106fd565b820191906000526020600020905b8154815290600101906020018083116106e057829003601f168201915b5050505050905090565b60008060016000610716610b1e565b73ffffffffffffffffffffffffffffffffffffffff1673ffffffffffffffffffffffffffffffffffffffff16815260200190815260200160002060008573ffffffffffffffffffffffffffffffffffffffff1673ffffffffffffffffffffffffffffffffffffffff168152602001908152602001600020549050828110156107d3576040517f08c379a00000000000000000000000000000000000000000000000000000000081526004016107ca906110f6565b60405180910390fd5b6107e76107de610b1e565b85858403610b26565b600191505092915050565b60006108066107ff610b1e565b848461089d565b6001905092915050565b6000600160008473ffffffffffffffffffffffffffffffffffffffff1673ffffffffffffffffffffffffffffffffffffffff16815260200190815260200160002060008373ffffffffffffffffffffffffffffffffffffffff1673ffffffffffffffffffffffffffffffffffffffff16815260200190815260200160002054905092915050565b60055481565b600073ffffffffffffffffffffffffffffffffffffffff168373ffffffffffffffffffffffffffffffffffffffff16141561090d576040517f08c379a0000000000000000000000000000000000000000000000000000000008152600401610904906110b6565b60405180910390fd5b600073ffffffffffffffffffffffffffffffffffffffff168273ffffffffffffffffffffffffffffffffffffffff16141561097d576040517f08c379a000000000000000000000000000000000000000000000000000000000815260040161097490611016565b60405180910390fd5b610988838383610cf1565b60008060008573ffffffffffffffffffffffffffffffffffffffff1673ffffffffffffffffffffffffffffffffffffffff16815260200190815260200160002054905081811015610a0e576040517f08c379a0000000000000000000000000000000000000000000000000000000008152600401610a0590611076565b60405180910390fd5b8181036000808673ffffffffffffffffffffffffffffffffffffffff1673ffffffffffffffffffffffffffffffffffffffff16815260200190815260200160002081905550816000808573ffffffffffffffffffffffffffffffffffffffff1673ffffffffffffffffffffffffffffffffffffffff1681526020019081526020016000206000828254610aa19190611168565b925050819055508273ffffffffffffffffffffffffffffffffffffffff168473ffffffffffffffffffffffffffffffffffffffff167fddf252ad1be2c89b69c2b068fc378daa952ba7f163c4a11628f55a4df523b3ef84604051610b059190611116565b60405180910390a3610b18848484610cf6565b50505050565b600033905090565b600073ffffffffffffffffffffffffffffffffffffffff168373ffffffffffffffffffffffffffffffffffffffff161415610b96576040517f08c379a0000000000000000000000000000000000000000000000000000000008152600401610b8d906110d6565b60405180910390fd5b600073ffffffffffffffffffffffffffffffffffffffff168273ffffffffffffffffffffffffffffffffffffffff161415610c06576040517f08c379a0000000000000000000000000000000000000000000000000000000008152600401610bfd90611056565b60405180910390fd5b80600160008573ffffffffffffffffffffffffffffffffffffffff1673ffffffffffffffffffffffffffffffffffffffff16815260200190815260200160002060008473ffffffffffffffffffffffffffffffffffffffff1673ffffffffffffffffffffffffffffffffffffffff168152602001908152602001600020819055508173ffffffffffffffffffffffffffffffffffffffff168373ffffffffffffffffffffffffffffffffffffffff167f8c5be1e5ebec7d5bd14f71427d1e84f3dd0314c0f7b2291e5b200ac8c7c3b92583604051610ce49190611116565b60405180910390a3505050565b505050565b505050565b600081359050610d0a81611539565b92915050565b600081359050610d1f81611550565b92915050565b600060208284031215610d3757600080fd5b6000610d4584828501610cfb565b91505092915050565b60008060408385031215610d6157600080fd5b6000610d6f85828601610cfb565b9250506020610d8085828601610cfb565b9150509250929050565b600080600060608486031215610d9f57600080fd5b6000610dad86828701610cfb565b9350506020610dbe86828701610cfb565b9250506040610dcf86828701610d10565b9150509250925092565b60008060408385031215610dec57600080fd5b6000610dfa85828601610cfb565b9250506020610e0b85828601610d10565b9150509250929050565b610e1e816111be565b82525050565b610e2d816111d0565b82525050565b6000610e3e8261114c565b610e488185611157565b9350610e58818560208601611213565b610e61816112d6565b840191505092915050565b6000610e79602383611157565b9150610e84826112e7565b604082019050919050565b6000610e9c601983611157565b9150610ea782611336565b602082019050919050565b6000610ebf602283611157565b9150610eca8261135f565b604082019050919050565b6000610ee2602683611157565b9150610eed826113ae565b604082019050919050565b6000610f05602883611157565b9150610f10826113fd565b604082019050919050565b6000610f28602583611157565b9150610f338261144c565b604082019050919050565b6000610f4b602483611157565b9150610f568261149b565b604082019050919050565b6000610f6e602583611157565b9150610f79826114ea565b604082019050919050565b610f8d816111fc565b82525050565b610f9c81611206565b82525050565b6000606082019050610fb76000830186610e15565b610fc46020830185610f84565b610fd16040830184610f84565b949350505050565b6000602082019050610fee6000830184610e24565b92915050565b6000602082019050818103600083015261100e8184610e33565b905092915050565b6000602082019050818103600083015261102f81610e6c565b9050919050565b6000602082019050818103600083015261104f81610e8f565b9050919050565b6000602082019050818103600083015261106f81610eb2565b9050919050565b6000602082019050818103600083015261108f81610ed5565b9050919050565b600060208201905081810360008301526110af81610ef8565b9050919050565b600060208201905081810360008301526110cf81610f1b565b9050919050565b600060208201905081810360008301526110ef81610f3e565b9050919050565b6000602082019050818103600083015261110f81610f61565b9050919050565b600060208201905061112b6000830184610f84565b92915050565b60006020820190506111466000830184610f93565b92915050565b600081519050919050565b600082825260208201905092915050565b6000611173826111fc565b915061117e836111fc565b9250827fffffffffffffffffffffffffffffffffffffffffffffffffffffffffffffffff038211156111b3576111b2611278565b5b828201905092915050565b60006111c9826111dc565b9050919050565b60008115159050919050565b600073ffffffffffffffffffffffffffffffffffffffff82169050919050565b6000819050919050565b600060ff82169050919050565b60005b83811015611231578082015181840152602081019050611216565b83811115611240576000848401525b50505050565b6000600282049050600182168061125e57607f821691505b60208210811415611272576112716112a7565b5b50919050565b7f4e487b7100000000000000000000000000000000000000000000000000000000600052601160045260246000fd5b7f4e487b7100000000000000000000000000000000000000000000000000000000600052602260045260246000fd5b6000601f19601f8301169050919050565b7f45524332303a207472616e7366657220746f20746865207a65726f206164647260008201527f6573730000000000000000000000000000000000000000000000000000000000602082015250565b7f436f6e747269627574696f6e2054696d65206973204f76657200000000000000600082015250565b7f45524332303a20617070726f766520746f20746865207a65726f20616464726560008201527f7373000000000000000000000000000000000000000000000000000000000000602082015250565b7f45524332303a207472616e7366657220616d6f756e742065786365656473206260008201527f616c616e63650000000000000000000000000000000000000000000000000000602082015250565b7f45524332303a207472616e7366657220616d6f756e742065786365656473206160008201527f6c6c6f77616e6365000000000000000000000000000000000000000000000000602082015250565b7f45524332303a207472616e736665722066726f6d20746865207a65726f20616460008201527f6472657373000000000000000000000000000000000000000000000000000000602082015250565b7f45524332303a20617070726f76652066726f6d20746865207a65726f2061646460008201527f7265737300000000000000000000000000000000000000000000000000000000602082015250565b7f45524332303a2064656372656173656420616c6c6f77616e63652062656c6f7760008201527f207a65726f000000000000000000000000000000000000000000000000000000602082015250565b611542816111be565b811461154d57600080fd5b50565b611559816111fc565b811461156457600080fd5b5056fea264697066735822122075dbdcc6e0040f8fd80e073d2e8848c47d3f064a13dfb3682200ccb9e07581cb64736f6c63430008040033",
  "linkReferences": {},
  "deployedLinkReferences": {}
}