{
  "_format": "hh-sol-artifact-1",
  "contractName": "NewtonToken",
  "sourceName": "contracts/Token.sol",
  "abi": [
    {
      "inputs": [],
      "stateMutability": "nonpayable",
      "type": "constructor"
    },
    {
      "anonymous": false,
      "inputs": [
        {
          "indexed": true,
          "internalType": "address",
          "name": "owner",
          "type": "address"
        },
        {
          "indexed": true,
          "internalType": "address",
          "name": "spender",
          "type": "address"
        },
        {
          "indexed": false,
          "internalType": "uint256",
          "name": "value",
          "type": "uint256"
        }
      ],
      "name": "Approval",
      "type": "event"
    },
    {
      "anonymous": false,
      "inputs": [
        {
          "indexed": true,
          "internalType": "address",
          "name": "from",
          "type": "address"
        },
        {
          "indexed": true,
          "internalType": "address",
          "name": "to",
          "type": "address"
        },
        {
          "indexed": false,
          "internalType": "uint256",
          "name": "value",
          "type": "uint256"
        }
      ],
      "name": "Transfer",
      "type": "event"
    },
    {
      "anonymous": false,
      "inputs": [
        {
          "indexed": false,
          "internalType": "address",
          "name": "recipient",
          "type": "address"
        },
        {
          "indexed": false,
          "internalType": "uint256",
          "name": "tokensSent",
          "type": "uint256"
        },
        {
          "indexed": false,
          "internalType": "uint256",
          "name": "currentTime",
          "type": "uint256"
        }
      ],
      "name": "Transfers",
      "type": "event"
    },
    {
      "inputs": [
        {
          "internalType": "address",
          "name": "owner",
          "type": "address"
        },
        {
          "internalType": "address",
          "name": "spender",
          "type": "address"
        }
      ],
      "name": "allowance",
      "outputs": [
        {
          "internalType": "uint256",
          "name": "",
          "type": "uint256"
        }
      ],
      "stateMutability": "view",
      "type": "function"
    },
    {
      "inputs": [
        {
          "internalType": "address",
          "name": "spender",
          "type": "address"
        },
        {
          "internalType": "uint256",
          "name": "amount",
          "type": "uint256"
        }
      ],
      "name": "approve",
      "outputs": [
        {
          "internalType": "bool",
          "name": "",
          "type": "bool"
        }
      ],
      "stateMutability": "nonpayable",
      "type": "function"
    },
    {
      "inputs": [
        {
          "internalType": "address",
          "name": "account",
          "type": "address"
        }
      ],
      "name": "balanceOf",
      "outputs": [
        {
          "internalType": "uint256",
          "name": "",
          "type": "uint256"
        }
      ],
      "stateMutability": "view",
      "type": "function"
    },
    {
      "inputs": [],
      "name": "decimals",
      "outputs": [
        {
          "internalType": "uint8",
          "name": "",
          "type": "uint8"
        }
      ],
      "stateMutability": "view",
      "type": "function"
    },
    {
      "inputs": [
        {
          "internalType": "address",
          "name": "spender",
          "type": "address"
        },
        {
          "internalType": "uint256",
          "name": "subtractedValue",
          "type": "uint256"
        }
      ],
      "name": "decreaseAllowance",
      "outputs": [
        {
          "internalType": "bool",
          "name": "",
          "type": "bool"
        }
      ],
      "stateMutability": "nonpayable",
      "type": "function"
    },
    {
      "inputs": [
        {
          "internalType": "address",
          "name": "spender",
          "type": "address"
        },
        {
          "internalType": "uint256",
          "name": "addedValue",
          "type": "uint256"
        }
      ],
      "name": "increaseAllowance",
      "outputs": [
        {
          "internalType": "bool",
          "name": "",
          "type": "bool"
        }
      ],
      "stateMutability": "nonpayable",
      "type": "function"
    },
    {
      "inputs": [],
      "name": "name",
      "outputs": [
        {
          "internalType": "string",
          "name": "",
          "type": "string"
        }
      ],
      "stateMutability": "view",
      "type": "function"
    },
    {
      "inputs": [],
      "name": "symbol",
      "outputs": [
        {
          "internalType": "string",
          "name": "",
          "type": "string"
        }
      ],
      "stateMutability": "view",
      "type": "function"
    },
    {
      "inputs": [],
      "name": "totalSupply",
      "outputs": [
        {
          "internalType": "uint256",
          "name": "",
          "type": "uint256"
        }
      ],
      "stateMutability": "view",
      "type": "function"
    },
    {
      "inputs": [
        {
          "internalType": "address",
          "name": "recipient",
          "type": "address"
        },
        {
          "internalType": "uint256",
          "name": "amount",
          "type": "uint256"
        }
      ],
      "name": "transfer",
      "outputs": [
        {
          "internalType": "bool",
          "name": "",
          "type": "bool"
        }
      ],
      "stateMutability": "nonpayable",
      "type": "function"
    },
    {
      "inputs": [
        {
          "internalType": "address",
          "name": "sender",
          "type": "address"
        },
        {
          "internalType": "address",
          "name": "recipient",
          "type": "address"
        },
        {
          "internalType": "uint256",
          "name": "amount",
          "type": "uint256"
        }
      ],
      "name": "transferFrom",
      "outputs": [
        {
          "internalType": "bool",
          "name": "",
          "type": "bool"
        }
      ],
      "stateMutability": "nonpayable",
      "type": "function"
    },
    {
      "inputs": [
        {
          "internalType": "address",
          "name": "recipient",
          "type": "address"
        },
        {
          "internalType": "uint256",
          "name": "amount",
          "type": "uint256"
        }
      ],
      "name": "transferr",
      "outputs": [],
      "stateMutability": "nonpayable",
      "type": "function"
    }
  ],
  "bytecode": "0x60806040523480156200001157600080fd5b506040518060400160405280600681526020017f4e6577746f6e00000000000000000000000000000000000000000000000000008152506040518060400160405280600381526020017f4e45570000000000000000000000000000000000000000000000000000000000815250816003908051906020019062000096929190620002d0565b508060049080519060200190620000af929190620002d0565b50505030600760006101000a81548173ffffffffffffffffffffffffffffffffffffffff021916908373ffffffffffffffffffffffffffffffffffffffff16021790555062000129600760009054906101000a900473ffffffffffffffffffffffffffffffffffffffff166103e86200014d60201b60201c565b4260058190555060b460055462000141919062000408565b6006819055506200052c565b600073ffffffffffffffffffffffffffffffffffffffff168273ffffffffffffffffffffffffffffffffffffffff161415620001c0576040517f08c379a0000000000000000000000000000000000000000000000000000000008152600401620001b790620003b8565b60405180910390fd5b620001d460008383620002c660201b60201c565b8060026000828254620001e8919062000408565b92505081905550806000808473ffffffffffffffffffffffffffffffffffffffff1673ffffffffffffffffffffffffffffffffffffffff16815260200190815260200160002060008282546200023f919062000408565b925050819055508173ffffffffffffffffffffffffffffffffffffffff16600073ffffffffffffffffffffffffffffffffffffffff167fddf252ad1be2c89b69c2b068fc378daa952ba7f163c4a11628f55a4df523b3ef83604051620002a69190620003da565b60405180910390a3620002c260008383620002cb60201b60201c565b5050565b505050565b505050565b828054620002de906200046f565b90600052602060002090601f0160209004810192826200030257600085556200034e565b82601f106200031d57805160ff19168380011785556200034e565b828001600101855582156200034e579182015b828111156200034d57825182559160200191906001019062000330565b5b5090506200035d919062000361565b5090565b5b808211156200037c57600081600090555060010162000362565b5090565b60006200038f601f83620003f7565b91506200039c8262000503565b602082019050919050565b620003b28162000465565b82525050565b60006020820190508181036000830152620003d38162000380565b9050919050565b6000602082019050620003f16000830184620003a7565b92915050565b600082825260208201905092915050565b6000620004158262000465565b9150620004228362000465565b9250827fffffffffffffffffffffffffffffffffffffffffffffffffffffffffffffffff038211156200045a5762000459620004a5565b5b828201905092915050565b6000819050919050565b600060028204905060018216806200048857607f821691505b602082108114156200049f576200049e620004d4565b5b50919050565b7f4e487b7100000000000000000000000000000000000000000000000000000000600052601160045260246000fd5b7f4e487b7100000000000000000000000000000000000000000000000000000000600052602260045260246000fd5b7f45524332303a206d696e7420746f20746865207a65726f206164647265737300600082015250565b61151f806200053c6000396000f3fe608060405234801561001057600080fd5b50600436106100b45760003560e01c80633950935111610071578063395093511461018f57806370a08231146101bf57806395d89b41146101ef578063a457c2d71461020d578063a9059cbb1461023d578063dd62ed3e1461026d576100b4565b8063069d78dc146100b957806306fdde03146100d5578063095ea7b3146100f357806318160ddd1461012357806323b872dd14610141578063313ce56714610171575b600080fd5b6100d360048036038101906100ce9190610d5b565b61029d565b005b6100dd61034e565b6040516100ea9190610f76565b60405180910390f35b61010d60048036038101906101089190610d5b565b6103e0565b60405161011a9190610f5b565b60405180910390f35b61012b6103fe565b6040516101389190611098565b60405180910390f35b61015b60048036038101906101569190610d0c565b610408565b6040516101689190610f5b565b60405180910390f35b610179610500565b60405161018691906110b3565b60405180910390f35b6101a960048036038101906101a49190610d5b565b610509565b6040516101b69190610f5b565b60405180910390f35b6101d960048036038101906101d49190610ca7565b6105b5565b6040516101e69190611098565b60405180910390f35b6101f76105fd565b6040516102049190610f76565b60405180910390f35b61022760048036038101906102229190610d5b565b61068f565b6040516102349190610f5b565b60405180910390f35b61025760048036038101906102529190610d5b565b61077a565b6040516102649190610f5b565b60405180910390f35b61028760048036038101906102829190610cd0565b610798565b6040516102949190611098565b60405180910390f35b4260065410156102e2576040517f08c379a00000000000000000000000000000000000000000000000000000000081526004016102d990610fb8565b60405180910390fd5b61030f600760009054906101000a900473ffffffffffffffffffffffffffffffffffffffff16838361081f565b7f458559a706678b768ec500d03dadcddb80ad052a1f016f5db16b14150eb87cd082824260405161034293929190610f24565b60405180910390a15050565b60606003805461035d906111c8565b80601f0160208091040260200160405190810160405280929190818152602001828054610389906111c8565b80156103d65780601f106103ab576101008083540402835291602001916103d6565b820191906000526020600020905b8154815290600101906020018083116103b957829003601f168201915b5050505050905090565b60006103f46103ed610aa0565b8484610aa8565b6001905092915050565b6000600254905090565b600061041584848461081f565b6000600160008673ffffffffffffffffffffffffffffffffffffffff1673ffffffffffffffffffffffffffffffffffffffff1681526020019081526020016000206000610460610aa0565b73ffffffffffffffffffffffffffffffffffffffff1673ffffffffffffffffffffffffffffffffffffffff168152602001908152602001600020549050828110156104e0576040517f08c379a00000000000000000000000000000000000000000000000000000000081526004016104d790611018565b60405180910390fd5b6104f4856104ec610aa0565b858403610aa8565b60019150509392505050565b60006012905090565b60006105ab610516610aa0565b848460016000610524610aa0565b73ffffffffffffffffffffffffffffffffffffffff1673ffffffffffffffffffffffffffffffffffffffff16815260200190815260200160002060008873ffffffffffffffffffffffffffffffffffffffff1673ffffffffffffffffffffffffffffffffffffffff168152602001908152602001600020546105a691906110ea565b610aa8565b6001905092915050565b60008060008373ffffffffffffffffffffffffffffffffffffffff1673ffffffffffffffffffffffffffffffffffffffff168152602001908152602001600020549050919050565b60606004805461060c906111c8565b80601f0160208091040260200160405190810160405280929190818152602001828054610638906111c8565b80156106855780601f1061065a57610100808354040283529160200191610685565b820191906000526020600020905b81548152906001019060200180831161066857829003601f168201915b5050505050905090565b6000806001600061069e610aa0565b73ffffffffffffffffffffffffffffffffffffffff1673ffffffffffffffffffffffffffffffffffffffff16815260200190815260200160002060008573ffffffffffffffffffffffffffffffffffffffff1673ffffffffffffffffffffffffffffffffffffffff1681526020019081526020016000205490508281101561075b576040517f08c379a000000000000000000000000000000000000000000000000000000000815260040161075290611078565b60405180910390fd5b61076f610766610aa0565b85858403610aa8565b600191505092915050565b600061078e610787610aa0565b848461081f565b6001905092915050565b6000600160008473ffffffffffffffffffffffffffffffffffffffff1673ffffffffffffffffffffffffffffffffffffffff16815260200190815260200160002060008373ffffffffffffffffffffffffffffffffffffffff1673ffffffffffffffffffffffffffffffffffffffff16815260200190815260200160002054905092915050565b600073ffffffffffffffffffffffffffffffffffffffff168373ffffffffffffffffffffffffffffffffffffffff16141561088f576040517f08c379a000000000000000000000000000000000000000000000000000000000815260040161088690611038565b60405180910390fd5b600073ffffffffffffffffffffffffffffffffffffffff168273ffffffffffffffffffffffffffffffffffffffff1614156108ff576040517f08c379a00000000000000000000000000000000000000000000000000000000081526004016108f690610f98565b60405180910390fd5b61090a838383610c73565b60008060008573ffffffffffffffffffffffffffffffffffffffff1673ffffffffffffffffffffffffffffffffffffffff16815260200190815260200160002054905081811015610990576040517f08c379a000000000000000000000000000000000000000000000000000000000815260040161098790610ff8565b60405180910390fd5b8181036000808673ffffffffffffffffffffffffffffffffffffffff1673ffffffffffffffffffffffffffffffffffffffff16815260200190815260200160002081905550816000808573ffffffffffffffffffffffffffffffffffffffff1673ffffffffffffffffffffffffffffffffffffffff1681526020019081526020016000206000828254610a2391906110ea565b925050819055508273ffffffffffffffffffffffffffffffffffffffff168473ffffffffffffffffffffffffffffffffffffffff167fddf252ad1be2c89b69c2b068fc378daa952ba7f163c4a11628f55a4df523b3ef84604051610a879190611098565b60405180910390a3610a9a848484610c78565b50505050565b600033905090565b600073ffffffffffffffffffffffffffffffffffffffff168373ffffffffffffffffffffffffffffffffffffffff161415610b18576040517f08c379a0000000000000000000000000000000000000000000000000000000008152600401610b0f90611058565b60405180910390fd5b600073ffffffffffffffffffffffffffffffffffffffff168273ffffffffffffffffffffffffffffffffffffffff161415610b88576040517f08c379a0000000000000000000000000000000000000000000000000000000008152600401610b7f90610fd8565b60405180910390fd5b80600160008573ffffffffffffffffffffffffffffffffffffffff1673ffffffffffffffffffffffffffffffffffffffff16815260200190815260200160002060008473ffffffffffffffffffffffffffffffffffffffff1673ffffffffffffffffffffffffffffffffffffffff168152602001908152602001600020819055508173ffffffffffffffffffffffffffffffffffffffff168373ffffffffffffffffffffffffffffffffffffffff167f8c5be1e5ebec7d5bd14f71427d1e84f3dd0314c0f7b2291e5b200ac8c7c3b92583604051610c669190611098565b60405180910390a3505050565b505050565b505050565b600081359050610c8c816114bb565b92915050565b600081359050610ca1816114d2565b92915050565b600060208284031215610cb957600080fd5b6000610cc784828501610c7d565b91505092915050565b60008060408385031215610ce357600080fd5b6000610cf185828601610c7d565b9250506020610d0285828601610c7d565b9150509250929050565b600080600060608486031215610d2157600080fd5b6000610d2f86828701610c7d565b9350506020610d4086828701610c7d565b9250506040610d5186828701610c92565b9150509250925092565b60008060408385031215610d6e57600080fd5b6000610d7c85828601610c7d565b9250506020610d8d85828601610c92565b9150509250929050565b610da081611140565b82525050565b610daf81611152565b82525050565b6000610dc0826110ce565b610dca81856110d9565b9350610dda818560208601611195565b610de381611258565b840191505092915050565b6000610dfb6023836110d9565b9150610e0682611269565b604082019050919050565b6000610e1e6019836110d9565b9150610e29826112b8565b602082019050919050565b6000610e416022836110d9565b9150610e4c826112e1565b604082019050919050565b6000610e646026836110d9565b9150610e6f82611330565b604082019050919050565b6000610e876028836110d9565b9150610e928261137f565b604082019050919050565b6000610eaa6025836110d9565b9150610eb5826113ce565b604082019050919050565b6000610ecd6024836110d9565b9150610ed88261141d565b604082019050919050565b6000610ef06025836110d9565b9150610efb8261146c565b604082019050919050565b610f0f8161117e565b82525050565b610f1e81611188565b82525050565b6000606082019050610f396000830186610d97565b610f466020830185610f06565b610f536040830184610f06565b949350505050565b6000602082019050610f706000830184610da6565b92915050565b60006020820190508181036000830152610f908184610db5565b905092915050565b60006020820190508181036000830152610fb181610dee565b9050919050565b60006020820190508181036000830152610fd181610e11565b9050919050565b60006020820190508181036000830152610ff181610e34565b9050919050565b6000602082019050818103600083015261101181610e57565b9050919050565b6000602082019050818103600083015261103181610e7a565b9050919050565b6000602082019050818103600083015261105181610e9d565b9050919050565b6000602082019050818103600083015261107181610ec0565b9050919050565b6000602082019050818103600083015261109181610ee3565b9050919050565b60006020820190506110ad6000830184610f06565b92915050565b60006020820190506110c86000830184610f15565b92915050565b600081519050919050565b600082825260208201905092915050565b60006110f58261117e565b91506111008361117e565b9250827fffffffffffffffffffffffffffffffffffffffffffffffffffffffffffffffff03821115611135576111346111fa565b5b828201905092915050565b600061114b8261115e565b9050919050565b60008115159050919050565b600073ffffffffffffffffffffffffffffffffffffffff82169050919050565b6000819050919050565b600060ff82169050919050565b60005b838110156111b3578082015181840152602081019050611198565b838111156111c2576000848401525b50505050565b600060028204905060018216806111e057607f821691505b602082108114156111f4576111f3611229565b5b50919050565b7f4e487b7100000000000000000000000000000000000000000000000000000000600052601160045260246000fd5b7f4e487b7100000000000000000000000000000000000000000000000000000000600052602260045260246000fd5b6000601f19601f8301169050919050565b7f45524332303a207472616e7366657220746f20746865207a65726f206164647260008201527f6573730000000000000000000000000000000000000000000000000000000000602082015250565b7f436f6e747269627574696f6e2054696d65206973204f76657200000000000000600082015250565b7f45524332303a20617070726f766520746f20746865207a65726f20616464726560008201527f7373000000000000000000000000000000000000000000000000000000000000602082015250565b7f45524332303a207472616e7366657220616d6f756e742065786365656473206260008201527f616c616e63650000000000000000000000000000000000000000000000000000602082015250565b7f45524332303a207472616e7366657220616d6f756e742065786365656473206160008201527f6c6c6f77616e6365000000000000000000000000000000000000000000000000602082015250565b7f45524332303a207472616e736665722066726f6d20746865207a65726f20616460008201527f6472657373000000000000000000000000000000000000000000000000000000602082015250565b7f45524332303a20617070726f76652066726f6d20746865207a65726f2061646460008201527f7265737300000000000000000000000000000000000000000000000000000000602082015250565b7f45524332303a2064656372656173656420616c6c6f77616e63652062656c6f7760008201527f207a65726f000000000000000000000000000000000000000000000000000000602082015250565b6114c481611140565b81146114cf57600080fd5b50565b6114db8161117e565b81146114e657600080fd5b5056fea26469706673582212207a807c7e5a65f19b9fd57530d83be9fb1f7b1d289d070f1e3da06c946960279a64736f6c63430008040033",
  "linkReferences": {},
  "deployedLinkReferences": {}
}