{
  "_format": "hh-sol-artifact-1",
  "contractName": "NEWToken",
  "sourceName": "contracts/Token.sol",
  "abi": [
    {
      "inputs": [],
      "stateMutability": "nonpayable",
      "type": "constructor"
    },
    {
      "anonymous": false,
      "inputs": [
        {
          "indexed": true,
          "internalType": "address",
          "name": "owner",
          "type": "address"
        },
        {
          "indexed": true,
          "internalType": "address",
          "name": "spender",
          "type": "address"
        },
        {
          "indexed": false,
          "internalType": "uint256",
          "name": "value",
          "type": "uint256"
        }
      ],
      "name": "Approval",
      "type": "event"
    },
    {
      "anonymous": false,
      "inputs": [
        {
          "indexed": true,
          "internalType": "address",
          "name": "from",
          "type": "address"
        },
        {
          "indexed": true,
          "internalType": "address",
          "name": "to",
          "type": "address"
        },
        {
          "indexed": false,
          "internalType": "uint256",
          "name": "value",
          "type": "uint256"
        }
      ],
      "name": "Transfer",
      "type": "event"
    },
    {
      "anonymous": false,
      "inputs": [
        {
          "indexed": false,
          "internalType": "address",
          "name": "recipient",
          "type": "address"
        },
        {
          "indexed": false,
          "internalType": "uint256",
          "name": "tokensSent",
          "type": "uint256"
        }
      ],
      "name": "Transfers",
      "type": "event"
    },
    {
      "inputs": [],
      "name": "_endTime",
      "outputs": [
        {
          "internalType": "uint256",
          "name": "",
          "type": "uint256"
        }
      ],
      "stateMutability": "view",
      "type": "function"
    },
    {
      "inputs": [],
      "name": "_startTime",
      "outputs": [
        {
          "internalType": "uint256",
          "name": "",
          "type": "uint256"
        }
      ],
      "stateMutability": "view",
      "type": "function"
    },
    {
      "inputs": [
        {
          "internalType": "address",
          "name": "owner",
          "type": "address"
        },
        {
          "internalType": "address",
          "name": "spender",
          "type": "address"
        }
      ],
      "name": "allowance",
      "outputs": [
        {
          "internalType": "uint256",
          "name": "",
          "type": "uint256"
        }
      ],
      "stateMutability": "view",
      "type": "function"
    },
    {
      "inputs": [
        {
          "internalType": "address",
          "name": "spender",
          "type": "address"
        },
        {
          "internalType": "uint256",
          "name": "amount",
          "type": "uint256"
        }
      ],
      "name": "approve",
      "outputs": [
        {
          "internalType": "bool",
          "name": "",
          "type": "bool"
        }
      ],
      "stateMutability": "nonpayable",
      "type": "function"
    },
    {
      "inputs": [
        {
          "internalType": "address",
          "name": "account",
          "type": "address"
        }
      ],
      "name": "balanceOf",
      "outputs": [
        {
          "internalType": "uint256",
          "name": "",
          "type": "uint256"
        }
      ],
      "stateMutability": "view",
      "type": "function"
    },
    {
      "inputs": [],
      "name": "decimals",
      "outputs": [
        {
          "internalType": "uint8",
          "name": "",
          "type": "uint8"
        }
      ],
      "stateMutability": "view",
      "type": "function"
    },
    {
      "inputs": [
        {
          "internalType": "address",
          "name": "spender",
          "type": "address"
        },
        {
          "internalType": "uint256",
          "name": "subtractedValue",
          "type": "uint256"
        }
      ],
      "name": "decreaseAllowance",
      "outputs": [
        {
          "internalType": "bool",
          "name": "",
          "type": "bool"
        }
      ],
      "stateMutability": "nonpayable",
      "type": "function"
    },
    {
      "inputs": [],
      "name": "hasEnded",
      "outputs": [
        {
          "internalType": "bool",
          "name": "",
          "type": "bool"
        }
      ],
      "stateMutability": "view",
      "type": "function"
    },
    {
      "inputs": [],
      "name": "hasStarted",
      "outputs": [
        {
          "internalType": "bool",
          "name": "",
          "type": "bool"
        }
      ],
      "stateMutability": "view",
      "type": "function"
    },
    {
      "inputs": [
        {
          "internalType": "address",
          "name": "spender",
          "type": "address"
        },
        {
          "internalType": "uint256",
          "name": "addedValue",
          "type": "uint256"
        }
      ],
      "name": "increaseAllowance",
      "outputs": [
        {
          "internalType": "bool",
          "name": "",
          "type": "bool"
        }
      ],
      "stateMutability": "nonpayable",
      "type": "function"
    },
    {
      "inputs": [],
      "name": "name",
      "outputs": [
        {
          "internalType": "string",
          "name": "",
          "type": "string"
        }
      ],
      "stateMutability": "view",
      "type": "function"
    },
    {
      "inputs": [],
      "name": "owner",
      "outputs": [
        {
          "internalType": "address",
          "name": "",
          "type": "address"
        }
      ],
      "stateMutability": "view",
      "type": "function"
    },
    {
      "inputs": [],
      "name": "symbol",
      "outputs": [
        {
          "internalType": "string",
          "name": "",
          "type": "string"
        }
      ],
      "stateMutability": "view",
      "type": "function"
    },
    {
      "inputs": [],
      "name": "totalSupply",
      "outputs": [
        {
          "internalType": "uint256",
          "name": "",
          "type": "uint256"
        }
      ],
      "stateMutability": "view",
      "type": "function"
    },
    {
      "inputs": [
        {
          "internalType": "address",
          "name": "recipient",
          "type": "address"
        },
        {
          "internalType": "uint256",
          "name": "amount",
          "type": "uint256"
        }
      ],
      "name": "transfer",
      "outputs": [
        {
          "internalType": "bool",
          "name": "",
          "type": "bool"
        }
      ],
      "stateMutability": "nonpayable",
      "type": "function"
    },
    {
      "inputs": [
        {
          "internalType": "address",
          "name": "sender",
          "type": "address"
        },
        {
          "internalType": "address",
          "name": "recipient",
          "type": "address"
        },
        {
          "internalType": "uint256",
          "name": "amount",
          "type": "uint256"
        }
      ],
      "name": "transferFrom",
      "outputs": [
        {
          "internalType": "bool",
          "name": "",
          "type": "bool"
        }
      ],
      "stateMutability": "nonpayable",
      "type": "function"
    },
    {
      "inputs": [
        {
          "internalType": "address",
          "name": "recipient",
          "type": "address"
        },
        {
          "internalType": "uint256",
          "name": "amount",
          "type": "uint256"
        }
      ],
      "name": "transferr",
      "outputs": [],
      "stateMutability": "nonpayable",
      "type": "function"
    }
  ],
  "bytecode": "0x60806040523480156200001157600080fd5b506040518060400160405280600681526020017f4e6577746f6e00000000000000000000000000000000000000000000000000008152506040518060400160405280600381526020017f4e4557000000000000000000000000000000000000000000000000000000000081525081600390805190602001906200009692919062000306565b508060049080519060200190620000af92919062000306565b50505030600760026101000a81548173ffffffffffffffffffffffffffffffffffffffff021916908373ffffffffffffffffffffffffffffffffffffffff16021790555062000129600760029054906101000a900473ffffffffffffffffffffffffffffffffffffffff166103e86200018360201b60201c565b4260058190555060b46005546200014191906200043e565b6006819055506001600760006101000a81548160ff0219169083151502179055506000600760016101000a81548160ff02191690831515021790555062000562565b600073ffffffffffffffffffffffffffffffffffffffff168273ffffffffffffffffffffffffffffffffffffffff161415620001f6576040517f08c379a0000000000000000000000000000000000000000000000000000000008152600401620001ed90620003ee565b60405180910390fd5b6200020a60008383620002fc60201b60201c565b80600260008282546200021e91906200043e565b92505081905550806000808473ffffffffffffffffffffffffffffffffffffffff1673ffffffffffffffffffffffffffffffffffffffff16815260200190815260200160002060008282546200027591906200043e565b925050819055508173ffffffffffffffffffffffffffffffffffffffff16600073ffffffffffffffffffffffffffffffffffffffff167fddf252ad1be2c89b69c2b068fc378daa952ba7f163c4a11628f55a4df523b3ef83604051620002dc919062000410565b60405180910390a3620002f8600083836200030160201b60201c565b5050565b505050565b505050565b8280546200031490620004a5565b90600052602060002090601f01602090048101928262000338576000855562000384565b82601f106200035357805160ff191683800117855562000384565b8280016001018555821562000384579182015b828111156200038357825182559160200191906001019062000366565b5b50905062000393919062000397565b5090565b5b80821115620003b257600081600090555060010162000398565b5090565b6000620003c5601f836200042d565b9150620003d28262000539565b602082019050919050565b620003e8816200049b565b82525050565b600060208201905081810360008301526200040981620003b6565b9050919050565b6000602082019050620004276000830184620003dd565b92915050565b600082825260208201905092915050565b60006200044b826200049b565b915062000458836200049b565b9250827fffffffffffffffffffffffffffffffffffffffffffffffffffffffffffffffff0382111562000490576200048f620004db565b5b828201905092915050565b6000819050919050565b60006002820490506001821680620004be57607f821691505b60208210811415620004d557620004d46200050a565b5b50919050565b7f4e487b7100000000000000000000000000000000000000000000000000000000600052601160045260246000fd5b7f4e487b7100000000000000000000000000000000000000000000000000000000600052602260045260246000fd5b7f45524332303a206d696e7420746f20746865207a65726f206164647265737300600082015250565b61168a80620005726000396000f3fe608060405234801561001057600080fd5b506004361061010b5760003560e01c806344691f7e116100a2578063a457c2d711610071578063a457c2d7146102be578063a9059cbb146102ee578063dd62ed3e1461031e578063ecb70fb71461034e578063fa1acb5c1461036c5761010b565b806344691f7e1461023457806370a08231146102525780638da5cb5b1461028257806395d89b41146102a05761010b565b806323b872dd116100de57806323b872dd14610198578063313ce567146101c857806339509351146101e657806340d48958146102165761010b565b8063069d78dc1461011057806306fdde031461012c578063095ea7b31461014a57806318160ddd1461017a575b600080fd5b61012a60048036038101906101259190610eb9565b61038a565b005b610134610454565b60405161014191906110e1565b60405180910390f35b610164600480360381019061015f9190610eb9565b6104e6565b60405161017191906110c6565b60405180910390f35b610182610504565b60405161018f9190611203565b60405180910390f35b6101b260048036038101906101ad9190610e6a565b61050e565b6040516101bf91906110c6565b60405180910390f35b6101d0610606565b6040516101dd919061121e565b60405180910390f35b61020060048036038101906101fb9190610eb9565b61060f565b60405161020d91906110c6565b60405180910390f35b61021e6106bb565b60405161022b9190611203565b60405180910390f35b61023c6106c1565b60405161024991906110c6565b60405180910390f35b61026c60048036038101906102679190610e05565b6106d4565b6040516102799190611203565b60405180910390f35b61028a61071c565b6040516102979190611082565b60405180910390f35b6102a8610742565b6040516102b591906110e1565b60405180910390f35b6102d860048036038101906102d39190610eb9565b6107d4565b6040516102e591906110c6565b60405180910390f35b61030860048036038101906103039190610eb9565b6108bf565b60405161031591906110c6565b60405180910390f35b61033860048036038101906103339190610e2e565b6108dd565b6040516103459190611203565b60405180910390f35b610356610964565b60405161036391906110c6565b60405180910390f35b610374610977565b6040516103819190611203565b60405180910390f35b4260065410156103cf576040517f08c379a00000000000000000000000000000000000000000000000000000000081526004016103c690611123565b60405180910390fd5b6103fc600760029054906101000a900473ffffffffffffffffffffffffffffffffffffffff16838361097d565b7f422a8086cc5a73555bcd6cbdfcb0cba7382d480009fb9b0162fa9e2395fb38e0828260405161042d92919061109d565b60405180910390a16001600760016101000a81548160ff0219169083151502179055505050565b60606003805461046390611333565b80601f016020809104026020016040519081016040528092919081815260200182805461048f90611333565b80156104dc5780601f106104b1576101008083540402835291602001916104dc565b820191906000526020600020905b8154815290600101906020018083116104bf57829003601f168201915b5050505050905090565b60006104fa6104f3610bfe565b8484610c06565b6001905092915050565b6000600254905090565b600061051b84848461097d565b6000600160008673ffffffffffffffffffffffffffffffffffffffff1673ffffffffffffffffffffffffffffffffffffffff1681526020019081526020016000206000610566610bfe565b73ffffffffffffffffffffffffffffffffffffffff1673ffffffffffffffffffffffffffffffffffffffff168152602001908152602001600020549050828110156105e6576040517f08c379a00000000000000000000000000000000000000000000000000000000081526004016105dd90611183565b60405180910390fd5b6105fa856105f2610bfe565b858403610c06565b60019150509392505050565b60006012905090565b60006106b161061c610bfe565b84846001600061062a610bfe565b73ffffffffffffffffffffffffffffffffffffffff1673ffffffffffffffffffffffffffffffffffffffff16815260200190815260200160002060008873ffffffffffffffffffffffffffffffffffffffff1673ffffffffffffffffffffffffffffffffffffffff168152602001908152602001600020546106ac9190611255565b610c06565b6001905092915050565b60065481565b600760009054906101000a900460ff1681565b60008060008373ffffffffffffffffffffffffffffffffffffffff1673ffffffffffffffffffffffffffffffffffffffff168152602001908152602001600020549050919050565b600760029054906101000a900473ffffffffffffffffffffffffffffffffffffffff1681565b60606004805461075190611333565b80601f016020809104026020016040519081016040528092919081815260200182805461077d90611333565b80156107ca5780601f1061079f576101008083540402835291602001916107ca565b820191906000526020600020905b8154815290600101906020018083116107ad57829003601f168201915b5050505050905090565b600080600160006107e3610bfe565b73ffffffffffffffffffffffffffffffffffffffff1673ffffffffffffffffffffffffffffffffffffffff16815260200190815260200160002060008573ffffffffffffffffffffffffffffffffffffffff1673ffffffffffffffffffffffffffffffffffffffff168152602001908152602001600020549050828110156108a0576040517f08c379a0000000000000000000000000000000000000000000000000000000008152600401610897906111e3565b60405180910390fd5b6108b46108ab610bfe565b85858403610c06565b600191505092915050565b60006108d36108cc610bfe565b848461097d565b6001905092915050565b6000600160008473ffffffffffffffffffffffffffffffffffffffff1673ffffffffffffffffffffffffffffffffffffffff16815260200190815260200160002060008373ffffffffffffffffffffffffffffffffffffffff1673ffffffffffffffffffffffffffffffffffffffff16815260200190815260200160002054905092915050565b600760019054906101000a900460ff1681565b60055481565b600073ffffffffffffffffffffffffffffffffffffffff168373ffffffffffffffffffffffffffffffffffffffff1614156109ed576040517f08c379a00000000000000000000000000000000000000000000000000000000081526004016109e4906111a3565b60405180910390fd5b600073ffffffffffffffffffffffffffffffffffffffff168273ffffffffffffffffffffffffffffffffffffffff161415610a5d576040517f08c379a0000000000000000000000000000000000000000000000000000000008152600401610a5490611103565b60405180910390fd5b610a68838383610dd1565b60008060008573ffffffffffffffffffffffffffffffffffffffff1673ffffffffffffffffffffffffffffffffffffffff16815260200190815260200160002054905081811015610aee576040517f08c379a0000000000000000000000000000000000000000000000000000000008152600401610ae590611163565b60405180910390fd5b8181036000808673ffffffffffffffffffffffffffffffffffffffff1673ffffffffffffffffffffffffffffffffffffffff16815260200190815260200160002081905550816000808573ffffffffffffffffffffffffffffffffffffffff1673ffffffffffffffffffffffffffffffffffffffff1681526020019081526020016000206000828254610b819190611255565b925050819055508273ffffffffffffffffffffffffffffffffffffffff168473ffffffffffffffffffffffffffffffffffffffff167fddf252ad1be2c89b69c2b068fc378daa952ba7f163c4a11628f55a4df523b3ef84604051610be59190611203565b60405180910390a3610bf8848484610dd6565b50505050565b600033905090565b600073ffffffffffffffffffffffffffffffffffffffff168373ffffffffffffffffffffffffffffffffffffffff161415610c76576040517f08c379a0000000000000000000000000000000000000000000000000000000008152600401610c6d906111c3565b60405180910390fd5b600073ffffffffffffffffffffffffffffffffffffffff168273ffffffffffffffffffffffffffffffffffffffff161415610ce6576040517f08c379a0000000000000000000000000000000000000000000000000000000008152600401610cdd90611143565b60405180910390fd5b80600160008573ffffffffffffffffffffffffffffffffffffffff1673ffffffffffffffffffffffffffffffffffffffff16815260200190815260200160002060008473ffffffffffffffffffffffffffffffffffffffff1673ffffffffffffffffffffffffffffffffffffffff168152602001908152602001600020819055508173ffffffffffffffffffffffffffffffffffffffff168373ffffffffffffffffffffffffffffffffffffffff167f8c5be1e5ebec7d5bd14f71427d1e84f3dd0314c0f7b2291e5b200ac8c7c3b92583604051610dc49190611203565b60405180910390a3505050565b505050565b505050565b600081359050610dea81611626565b92915050565b600081359050610dff8161163d565b92915050565b600060208284031215610e1757600080fd5b6000610e2584828501610ddb565b91505092915050565b60008060408385031215610e4157600080fd5b6000610e4f85828601610ddb565b9250506020610e6085828601610ddb565b9150509250929050565b600080600060608486031215610e7f57600080fd5b6000610e8d86828701610ddb565b9350506020610e9e86828701610ddb565b9250506040610eaf86828701610df0565b9150509250925092565b60008060408385031215610ecc57600080fd5b6000610eda85828601610ddb565b9250506020610eeb85828601610df0565b9150509250929050565b610efe816112ab565b82525050565b610f0d816112bd565b82525050565b6000610f1e82611239565b610f288185611244565b9350610f38818560208601611300565b610f41816113c3565b840191505092915050565b6000610f59602383611244565b9150610f64826113d4565b604082019050919050565b6000610f7c601983611244565b9150610f8782611423565b602082019050919050565b6000610f9f602283611244565b9150610faa8261144c565b604082019050919050565b6000610fc2602683611244565b9150610fcd8261149b565b604082019050919050565b6000610fe5602883611244565b9150610ff0826114ea565b604082019050919050565b6000611008602583611244565b915061101382611539565b604082019050919050565b600061102b602483611244565b915061103682611588565b604082019050919050565b600061104e602583611244565b9150611059826115d7565b604082019050919050565b61106d816112e9565b82525050565b61107c816112f3565b82525050565b60006020820190506110976000830184610ef5565b92915050565b60006040820190506110b26000830185610ef5565b6110bf6020830184611064565b9392505050565b60006020820190506110db6000830184610f04565b92915050565b600060208201905081810360008301526110fb8184610f13565b905092915050565b6000602082019050818103600083015261111c81610f4c565b9050919050565b6000602082019050818103600083015261113c81610f6f565b9050919050565b6000602082019050818103600083015261115c81610f92565b9050919050565b6000602082019050818103600083015261117c81610fb5565b9050919050565b6000602082019050818103600083015261119c81610fd8565b9050919050565b600060208201905081810360008301526111bc81610ffb565b9050919050565b600060208201905081810360008301526111dc8161101e565b9050919050565b600060208201905081810360008301526111fc81611041565b9050919050565b60006020820190506112186000830184611064565b92915050565b60006020820190506112336000830184611073565b92915050565b600081519050919050565b600082825260208201905092915050565b6000611260826112e9565b915061126b836112e9565b9250827fffffffffffffffffffffffffffffffffffffffffffffffffffffffffffffffff038211156112a05761129f611365565b5b828201905092915050565b60006112b6826112c9565b9050919050565b60008115159050919050565b600073ffffffffffffffffffffffffffffffffffffffff82169050919050565b6000819050919050565b600060ff82169050919050565b60005b8381101561131e578082015181840152602081019050611303565b8381111561132d576000848401525b50505050565b6000600282049050600182168061134b57607f821691505b6020821081141561135f5761135e611394565b5b50919050565b7f4e487b7100000000000000000000000000000000000000000000000000000000600052601160045260246000fd5b7f4e487b7100000000000000000000000000000000000000000000000000000000600052602260045260246000fd5b6000601f19601f8301169050919050565b7f45524332303a207472616e7366657220746f20746865207a65726f206164647260008201527f6573730000000000000000000000000000000000000000000000000000000000602082015250565b7f436f6e747269627574696f6e2054696d65206973204f76657200000000000000600082015250565b7f45524332303a20617070726f766520746f20746865207a65726f20616464726560008201527f7373000000000000000000000000000000000000000000000000000000000000602082015250565b7f45524332303a207472616e7366657220616d6f756e742065786365656473206260008201527f616c616e63650000000000000000000000000000000000000000000000000000602082015250565b7f45524332303a207472616e7366657220616d6f756e742065786365656473206160008201527f6c6c6f77616e6365000000000000000000000000000000000000000000000000602082015250565b7f45524332303a207472616e736665722066726f6d20746865207a65726f20616460008201527f6472657373000000000000000000000000000000000000000000000000000000602082015250565b7f45524332303a20617070726f76652066726f6d20746865207a65726f2061646460008201527f7265737300000000000000000000000000000000000000000000000000000000602082015250565b7f45524332303a2064656372656173656420616c6c6f77616e63652062656c6f7760008201527f207a65726f000000000000000000000000000000000000000000000000000000602082015250565b61162f816112ab565b811461163a57600080fd5b50565b611646816112e9565b811461165157600080fd5b5056fea2646970667358221220b81e251020a67ff33974f36dffcc61e181e1814e2dad8ee9df8ad61df59228b964736f6c63430008040033",
  "linkReferences": {},
  "deployedLinkReferences": {}
}