{
  "_format": "hh-sol-artifact-1",
  "contractName": "Contribution",
  "sourceName": "contracts/Inheritance.sol",
  "abi": [
    {
      "inputs": [],
      "stateMutability": "payable",
      "type": "constructor"
    },
    {
      "anonymous": false,
      "inputs": [
        {
          "indexed": true,
          "internalType": "address",
          "name": "owner",
          "type": "address"
        },
        {
          "indexed": true,
          "internalType": "address",
          "name": "spender",
          "type": "address"
        },
        {
          "indexed": false,
          "internalType": "uint256",
          "name": "value",
          "type": "uint256"
        }
      ],
      "name": "Approval",
      "type": "event"
    },
    {
      "anonymous": false,
      "inputs": [
        {
          "indexed": false,
          "internalType": "address",
          "name": "requestor",
          "type": "address"
        },
        {
          "indexed": false,
          "internalType": "uint256",
          "name": "cost",
          "type": "uint256"
        },
        {
          "indexed": false,
          "internalType": "uint256",
          "name": "tokensSent",
          "type": "uint256"
        }
      ],
      "name": "Auction",
      "type": "event"
    },
    {
      "anonymous": false,
      "inputs": [
        {
          "indexed": true,
          "internalType": "address",
          "name": "from",
          "type": "address"
        },
        {
          "indexed": true,
          "internalType": "address",
          "name": "to",
          "type": "address"
        },
        {
          "indexed": false,
          "internalType": "uint256",
          "name": "value",
          "type": "uint256"
        }
      ],
      "name": "Transfer",
      "type": "event"
    },
    {
      "inputs": [
        {
          "internalType": "address",
          "name": "owner",
          "type": "address"
        },
        {
          "internalType": "address",
          "name": "spender",
          "type": "address"
        }
      ],
      "name": "allowance",
      "outputs": [
        {
          "internalType": "uint256",
          "name": "",
          "type": "uint256"
        }
      ],
      "stateMutability": "view",
      "type": "function"
    },
    {
      "inputs": [
        {
          "internalType": "address",
          "name": "spender",
          "type": "address"
        },
        {
          "internalType": "uint256",
          "name": "amount",
          "type": "uint256"
        }
      ],
      "name": "approve",
      "outputs": [
        {
          "internalType": "bool",
          "name": "",
          "type": "bool"
        }
      ],
      "stateMutability": "nonpayable",
      "type": "function"
    },
    {
      "inputs": [
        {
          "internalType": "address",
          "name": "account",
          "type": "address"
        }
      ],
      "name": "balanceOf",
      "outputs": [
        {
          "internalType": "uint256",
          "name": "",
          "type": "uint256"
        }
      ],
      "stateMutability": "view",
      "type": "function"
    },
    {
      "inputs": [],
      "name": "decimals",
      "outputs": [
        {
          "internalType": "uint8",
          "name": "",
          "type": "uint8"
        }
      ],
      "stateMutability": "view",
      "type": "function"
    },
    {
      "inputs": [
        {
          "internalType": "address",
          "name": "spender",
          "type": "address"
        },
        {
          "internalType": "uint256",
          "name": "subtractedValue",
          "type": "uint256"
        }
      ],
      "name": "decreaseAllowance",
      "outputs": [
        {
          "internalType": "bool",
          "name": "",
          "type": "bool"
        }
      ],
      "stateMutability": "nonpayable",
      "type": "function"
    },
    {
      "inputs": [
        {
          "internalType": "address",
          "name": "recipient",
          "type": "address"
        },
        {
          "internalType": "uint256",
          "name": "amount",
          "type": "uint256"
        }
      ],
      "name": "exchange",
      "outputs": [],
      "stateMutability": "payable",
      "type": "function"
    },
    {
      "inputs": [],
      "name": "getBalance",
      "outputs": [
        {
          "internalType": "uint256",
          "name": "tokensOwned",
          "type": "uint256"
        }
      ],
      "stateMutability": "view",
      "type": "function"
    },
    {
      "inputs": [
        {
          "internalType": "address",
          "name": "spender",
          "type": "address"
        },
        {
          "internalType": "uint256",
          "name": "addedValue",
          "type": "uint256"
        }
      ],
      "name": "increaseAllowance",
      "outputs": [
        {
          "internalType": "bool",
          "name": "",
          "type": "bool"
        }
      ],
      "stateMutability": "nonpayable",
      "type": "function"
    },
    {
      "inputs": [],
      "name": "name",
      "outputs": [
        {
          "internalType": "string",
          "name": "",
          "type": "string"
        }
      ],
      "stateMutability": "view",
      "type": "function"
    },
    {
      "inputs": [],
      "name": "symbol",
      "outputs": [
        {
          "internalType": "string",
          "name": "",
          "type": "string"
        }
      ],
      "stateMutability": "view",
      "type": "function"
    },
    {
      "inputs": [],
      "name": "totalSupply",
      "outputs": [
        {
          "internalType": "uint256",
          "name": "",
          "type": "uint256"
        }
      ],
      "stateMutability": "view",
      "type": "function"
    },
    {
      "inputs": [
        {
          "internalType": "address",
          "name": "recipient",
          "type": "address"
        },
        {
          "internalType": "uint256",
          "name": "amount",
          "type": "uint256"
        }
      ],
      "name": "transfer",
      "outputs": [
        {
          "internalType": "bool",
          "name": "",
          "type": "bool"
        }
      ],
      "stateMutability": "nonpayable",
      "type": "function"
    },
    {
      "inputs": [
        {
          "internalType": "address",
          "name": "sender",
          "type": "address"
        },
        {
          "internalType": "address",
          "name": "recipient",
          "type": "address"
        },
        {
          "internalType": "uint256",
          "name": "amount",
          "type": "uint256"
        }
      ],
      "name": "transferFrom",
      "outputs": [
        {
          "internalType": "bool",
          "name": "",
          "type": "bool"
        }
      ],
      "stateMutability": "nonpayable",
      "type": "function"
    }
  ],
  "bytecode": "0x60806040526040518060400160405280600681526020017f4e6577746f6e00000000000000000000000000000000000000000000000000008152506040518060400160405280600381526020017f4e45570000000000000000000000000000000000000000000000000000000000815250816003908051906020019062000088929190620002c2565b508060049080519060200190620000a1929190620002c2565b50505033600760006101000a81548173ffffffffffffffffffffffffffffffffffffffff021916908373ffffffffffffffffffffffffffffffffffffffff1602179055506200011b600760009054906101000a900473ffffffffffffffffffffffffffffffffffffffff166103e86200013f60201b60201c565b4260058190555060f0600554620001339190620003fa565b6006819055506200051e565b600073ffffffffffffffffffffffffffffffffffffffff168273ffffffffffffffffffffffffffffffffffffffff161415620001b2576040517f08c379a0000000000000000000000000000000000000000000000000000000008152600401620001a990620003aa565b60405180910390fd5b620001c660008383620002b860201b60201c565b8060026000828254620001da9190620003fa565b92505081905550806000808473ffffffffffffffffffffffffffffffffffffffff1673ffffffffffffffffffffffffffffffffffffffff1681526020019081526020016000206000828254620002319190620003fa565b925050819055508173ffffffffffffffffffffffffffffffffffffffff16600073ffffffffffffffffffffffffffffffffffffffff167fddf252ad1be2c89b69c2b068fc378daa952ba7f163c4a11628f55a4df523b3ef83604051620002989190620003cc565b60405180910390a3620002b460008383620002bd60201b60201c565b5050565b505050565b505050565b828054620002d09062000461565b90600052602060002090601f016020900481019282620002f4576000855562000340565b82601f106200030f57805160ff191683800117855562000340565b8280016001018555821562000340579182015b828111156200033f57825182559160200191906001019062000322565b5b5090506200034f919062000353565b5090565b5b808211156200036e57600081600090555060010162000354565b5090565b600062000381601f83620003e9565b91506200038e82620004f5565b602082019050919050565b620003a48162000457565b82525050565b60006020820190508181036000830152620003c58162000372565b9050919050565b6000602082019050620003e3600083018462000399565b92915050565b600082825260208201905092915050565b6000620004078262000457565b9150620004148362000457565b9250827fffffffffffffffffffffffffffffffffffffffffffffffffffffffffffffffff038211156200044c576200044b62000497565b5b828201905092915050565b6000819050919050565b600060028204905060018216806200047a57607f821691505b60208210811415620004915762000490620004c6565b5b50919050565b7f4e487b7100000000000000000000000000000000000000000000000000000000600052601160045260246000fd5b7f4e487b7100000000000000000000000000000000000000000000000000000000600052602260045260246000fd5b7f45524332303a206d696e7420746f20746865207a65726f206164647265737300600082015250565b6116a6806200052e6000396000f3fe6080604052600436106100c25760003560e01c8063313ce5671161007f57806395d89b411161005957806395d89b4114610283578063a457c2d7146102ae578063a9059cbb146102eb578063dd62ed3e14610328576100c2565b8063313ce567146101de578063395093511461020957806370a0823114610246576100c2565b8063045d0389146100c757806306fdde03146100e3578063095ea7b31461010e57806312065fe01461014b57806318160ddd1461017657806323b872dd146101a1575b600080fd5b6100e160048036038101906100dc9190610e76565b610365565b005b3480156100ef57600080fd5b506100f8610459565b60405161010591906110b4565b60405180910390f35b34801561011a57600080fd5b5061013560048036038101906101309190610e76565b6104eb565b6040516101429190611099565b60405180910390f35b34801561015757600080fd5b50610160610509565b60405161016d91906111f6565b60405180910390f35b34801561018257600080fd5b5061018b610519565b60405161019891906111f6565b60405180910390f35b3480156101ad57600080fd5b506101c860048036038101906101c39190610e27565b610523565b6040516101d59190611099565b60405180910390f35b3480156101ea57600080fd5b506101f361061b565b6040516102009190611211565b60405180910390f35b34801561021557600080fd5b50610230600480360381019061022b9190610e76565b610624565b60405161023d9190611099565b60405180910390f35b34801561025257600080fd5b5061026d60048036038101906102689190610dc2565b6106d0565b60405161027a91906111f6565b60405180910390f35b34801561028f57600080fd5b50610298610718565b6040516102a591906110b4565b60405180910390f35b3480156102ba57600080fd5b506102d560048036038101906102d09190610e76565b6107aa565b6040516102e29190611099565b60405180910390f35b3480156102f757600080fd5b50610312600480360381019061030d9190610e76565b610895565b60405161031f9190611099565b60405180910390f35b34801561033457600080fd5b5061034f600480360381019061034a9190610deb565b6108b3565b60405161035c91906111f6565b60405180910390f35b600034116103a8576040517f08c379a000000000000000000000000000000000000000000000000000000000815260040161039f90611156565b60405180910390fd5b4260065410156103ed576040517f08c379a00000000000000000000000000000000000000000000000000000000081526004016103e4906110f6565b60405180910390fd5b61041a600760009054906101000a900473ffffffffffffffffffffffffffffffffffffffff16838361093a565b7f647cf2c0f315a1aa78a86d97a39c97751309793650134fcc719eba9a10fada2e33348360405161044d93929190611062565b60405180910390a15050565b60606003805461046890611326565b80601f016020809104026020016040519081016040528092919081815260200182805461049490611326565b80156104e15780601f106104b6576101008083540402835291602001916104e1565b820191906000526020600020905b8154815290600101906020018083116104c457829003601f168201915b5050505050905090565b60006104ff6104f8610bbb565b8484610bc3565b6001905092915050565b6000610514336106d0565b905090565b6000600254905090565b600061053084848461093a565b6000600160008673ffffffffffffffffffffffffffffffffffffffff1673ffffffffffffffffffffffffffffffffffffffff168152602001908152602001600020600061057b610bbb565b73ffffffffffffffffffffffffffffffffffffffff1673ffffffffffffffffffffffffffffffffffffffff168152602001908152602001600020549050828110156105fb576040517f08c379a00000000000000000000000000000000000000000000000000000000081526004016105f290611176565b60405180910390fd5b61060f85610607610bbb565b858403610bc3565b60019150509392505050565b60006012905090565b60006106c6610631610bbb565b84846001600061063f610bbb565b73ffffffffffffffffffffffffffffffffffffffff1673ffffffffffffffffffffffffffffffffffffffff16815260200190815260200160002060008873ffffffffffffffffffffffffffffffffffffffff1673ffffffffffffffffffffffffffffffffffffffff168152602001908152602001600020546106c19190611248565b610bc3565b6001905092915050565b60008060008373ffffffffffffffffffffffffffffffffffffffff1673ffffffffffffffffffffffffffffffffffffffff168152602001908152602001600020549050919050565b60606004805461072790611326565b80601f016020809104026020016040519081016040528092919081815260200182805461075390611326565b80156107a05780601f10610775576101008083540402835291602001916107a0565b820191906000526020600020905b81548152906001019060200180831161078357829003601f168201915b5050505050905090565b600080600160006107b9610bbb565b73ffffffffffffffffffffffffffffffffffffffff1673ffffffffffffffffffffffffffffffffffffffff16815260200190815260200160002060008573ffffffffffffffffffffffffffffffffffffffff1673ffffffffffffffffffffffffffffffffffffffff16815260200190815260200160002054905082811015610876576040517f08c379a000000000000000000000000000000000000000000000000000000000815260040161086d906111d6565b60405180910390fd5b61088a610881610bbb565b85858403610bc3565b600191505092915050565b60006108a96108a2610bbb565b848461093a565b6001905092915050565b6000600160008473ffffffffffffffffffffffffffffffffffffffff1673ffffffffffffffffffffffffffffffffffffffff16815260200190815260200160002060008373ffffffffffffffffffffffffffffffffffffffff1673ffffffffffffffffffffffffffffffffffffffff16815260200190815260200160002054905092915050565b600073ffffffffffffffffffffffffffffffffffffffff168373ffffffffffffffffffffffffffffffffffffffff1614156109aa576040517f08c379a00000000000000000000000000000000000000000000000000000000081526004016109a190611196565b60405180910390fd5b600073ffffffffffffffffffffffffffffffffffffffff168273ffffffffffffffffffffffffffffffffffffffff161415610a1a576040517f08c379a0000000000000000000000000000000000000000000000000000000008152600401610a11906110d6565b60405180910390fd5b610a25838383610d8e565b60008060008573ffffffffffffffffffffffffffffffffffffffff1673ffffffffffffffffffffffffffffffffffffffff16815260200190815260200160002054905081811015610aab576040517f08c379a0000000000000000000000000000000000000000000000000000000008152600401610aa290611136565b60405180910390fd5b8181036000808673ffffffffffffffffffffffffffffffffffffffff1673ffffffffffffffffffffffffffffffffffffffff16815260200190815260200160002081905550816000808573ffffffffffffffffffffffffffffffffffffffff1673ffffffffffffffffffffffffffffffffffffffff1681526020019081526020016000206000828254610b3e9190611248565b925050819055508273ffffffffffffffffffffffffffffffffffffffff168473ffffffffffffffffffffffffffffffffffffffff167fddf252ad1be2c89b69c2b068fc378daa952ba7f163c4a11628f55a4df523b3ef84604051610ba291906111f6565b60405180910390a3610bb5848484610d93565b50505050565b600033905090565b600073ffffffffffffffffffffffffffffffffffffffff168373ffffffffffffffffffffffffffffffffffffffff161415610c33576040517f08c379a0000000000000000000000000000000000000000000000000000000008152600401610c2a906111b6565b60405180910390fd5b600073ffffffffffffffffffffffffffffffffffffffff168273ffffffffffffffffffffffffffffffffffffffff161415610ca3576040517f08c379a0000000000000000000000000000000000000000000000000000000008152600401610c9a90611116565b60405180910390fd5b80600160008573ffffffffffffffffffffffffffffffffffffffff1673ffffffffffffffffffffffffffffffffffffffff16815260200190815260200160002060008473ffffffffffffffffffffffffffffffffffffffff1673ffffffffffffffffffffffffffffffffffffffff168152602001908152602001600020819055508173ffffffffffffffffffffffffffffffffffffffff168373ffffffffffffffffffffffffffffffffffffffff167f8c5be1e5ebec7d5bd14f71427d1e84f3dd0314c0f7b2291e5b200ac8c7c3b92583604051610d8191906111f6565b60405180910390a3505050565b505050565b505050565b600081359050610da781611642565b92915050565b600081359050610dbc81611659565b92915050565b600060208284031215610dd457600080fd5b6000610de284828501610d98565b91505092915050565b60008060408385031215610dfe57600080fd5b6000610e0c85828601610d98565b9250506020610e1d85828601610d98565b9150509250929050565b600080600060608486031215610e3c57600080fd5b6000610e4a86828701610d98565b9350506020610e5b86828701610d98565b9250506040610e6c86828701610dad565b9150509250925092565b60008060408385031215610e8957600080fd5b6000610e9785828601610d98565b9250506020610ea885828601610dad565b9150509250929050565b610ebb8161129e565b82525050565b610eca816112b0565b82525050565b6000610edb8261122c565b610ee58185611237565b9350610ef58185602086016112f3565b610efe816113b6565b840191505092915050565b6000610f16602383611237565b9150610f21826113c7565b604082019050919050565b6000610f39601983611237565b9150610f4482611416565b602082019050919050565b6000610f5c602283611237565b9150610f678261143f565b604082019050919050565b6000610f7f602683611237565b9150610f8a8261148e565b604082019050919050565b6000610fa2600e83611237565b9150610fad826114dd565b602082019050919050565b6000610fc5602883611237565b9150610fd082611506565b604082019050919050565b6000610fe8602583611237565b9150610ff382611555565b604082019050919050565b600061100b602483611237565b9150611016826115a4565b604082019050919050565b600061102e602583611237565b9150611039826115f3565b604082019050919050565b61104d816112dc565b82525050565b61105c816112e6565b82525050565b60006060820190506110776000830186610eb2565b6110846020830185611044565b6110916040830184611044565b949350505050565b60006020820190506110ae6000830184610ec1565b92915050565b600060208201905081810360008301526110ce8184610ed0565b905092915050565b600060208201905081810360008301526110ef81610f09565b9050919050565b6000602082019050818103600083015261110f81610f2c565b9050919050565b6000602082019050818103600083015261112f81610f4f565b9050919050565b6000602082019050818103600083015261114f81610f72565b9050919050565b6000602082019050818103600083015261116f81610f95565b9050919050565b6000602082019050818103600083015261118f81610fb8565b9050919050565b600060208201905081810360008301526111af81610fdb565b9050919050565b600060208201905081810360008301526111cf81610ffe565b9050919050565b600060208201905081810360008301526111ef81611021565b9050919050565b600060208201905061120b6000830184611044565b92915050565b60006020820190506112266000830184611053565b92915050565b600081519050919050565b600082825260208201905092915050565b6000611253826112dc565b915061125e836112dc565b9250827fffffffffffffffffffffffffffffffffffffffffffffffffffffffffffffffff0382111561129357611292611358565b5b828201905092915050565b60006112a9826112bc565b9050919050565b60008115159050919050565b600073ffffffffffffffffffffffffffffffffffffffff82169050919050565b6000819050919050565b600060ff82169050919050565b60005b838110156113115780820151818401526020810190506112f6565b83811115611320576000848401525b50505050565b6000600282049050600182168061133e57607f821691505b6020821081141561135257611351611387565b5b50919050565b7f4e487b7100000000000000000000000000000000000000000000000000000000600052601160045260246000fd5b7f4e487b7100000000000000000000000000000000000000000000000000000000600052602260045260246000fd5b6000601f19601f8301169050919050565b7f45524332303a207472616e7366657220746f20746865207a65726f206164647260008201527f6573730000000000000000000000000000000000000000000000000000000000602082015250565b7f436f6e747269627574696f6e2054696d65206973204f76657200000000000000600082015250565b7f45524332303a20617070726f766520746f20746865207a65726f20616464726560008201527f7373000000000000000000000000000000000000000000000000000000000000602082015250565b7f45524332303a207472616e7366657220616d6f756e742065786365656473206260008201527f616c616e63650000000000000000000000000000000000000000000000000000602082015250565b7f4e6f7420656e6f75676820455448000000000000000000000000000000000000600082015250565b7f45524332303a207472616e7366657220616d6f756e742065786365656473206160008201527f6c6c6f77616e6365000000000000000000000000000000000000000000000000602082015250565b7f45524332303a207472616e736665722066726f6d20746865207a65726f20616460008201527f6472657373000000000000000000000000000000000000000000000000000000602082015250565b7f45524332303a20617070726f76652066726f6d20746865207a65726f2061646460008201527f7265737300000000000000000000000000000000000000000000000000000000602082015250565b7f45524332303a2064656372656173656420616c6c6f77616e63652062656c6f7760008201527f207a65726f000000000000000000000000000000000000000000000000000000602082015250565b61164b8161129e565b811461165657600080fd5b50565b611662816112dc565b811461166d57600080fd5b5056fea26469706673582212205f3f41d9324e4c275eceffa6899fbfd07e8cc1d1d414602882acc185ab0adaa464736f6c63430008040033",
  "linkReferences": {},
  "deployedLinkReferences": {}
}